:020000040800F2
:10000000A066002081020008EF510008413F00086F
:10001000ED510008251000080D7F000800000000C9
:10002000000000000000000000000000C101000806
:1000300045130008000000001D020008FD760008BE
:100040009B0200089B0200089B0200089B0200081C
:100050009B0200089B0200089B0200089B0200080C
:100060009B0200089B0200089B0200089B020008FC
:10007000651200089B020008711200089B0200082C
:100080009B0200089B0200089B0200083510000834
:10009000291000089B0200089B0200089B02000830
:1000A0009B0200089B020008F17700089B020008F1
:1000B0000D7800089B0200089B0200089B020008C4
:1000C0009B0200089B0200089B0200089B0200089C
:1000D0009B020008BD7E0008D57E00089B02000838
:1000E0009B0200089B0200089B0200089B0200087C
:1000F0009B0200089B0200089B0200089B0200086C
:100100009B0200089B0200089B0200089B0200085B
:100110009B0200089B020008197800089B02000857
:100120009B0200087D120008891200089B0200084B
:100130009B0200089B0200089B0200089B0200082B
:10014000411000089B0200089B0200089B02000867
:100150009B020008951200089B020008017F00081E
:100160009B0200089B0200089B0200089B020008FB
:100170009B0200089B0200089B0200080000000090
:100180009B0200089B020008F97A0008057B000822
:100190009B0200089B0200089B0200089B020008CB
:1001A00000000000000000009B020008DFF80CD0F7
:1001B00000F042FC00480047ADB00008A0660020F7
:1001C0002C4B19680868B0E8F04F80F30988BFF33A
:1001D0006F8F4FF0000080F311887047000000001F
:1001E00008480068006880F308884FF0000080F33A
:1001F000148862B661B6BFF34F8FBFF36F8F00DF15
:1002000000BF00BF08ED00E0DFF80C00016841F41A
:1002100070010160704700BF88ED00E0EFF30980D6
:10022000BFF36F8F134B1A681EF0100F08BF20ED3D
:10023000108A20E9F04F106009B44FF0500080F3AD
:100240001188BFF34F8FBFF36F8F0BF02DFE4FF070
:10025000000080F3118809BC19680868B0E8F04F05
:100260001EF0100F08BFB0EC108A80F30988BFF3AE
:100270006F8F70476C010020EFF30580704700001E
:100280000648804706480047FEE7FEE7FEE7FEE730
:10029000FEE7FEE7FEE7FEE7FEE7FEE79D770008E4
:1002A000AD0100082DE9F05F0546002092469B460F
:1002B00088460646814640241BE02846414647467C
:1002C000224600F09AFA53465A46C01A914110D37A
:1002D00011461846224600F081FA2D1A67EB0108F4
:1002E0004F4622460120002100F078FA17EB000962
:1002F0004E41201EA4F10104DFDC484631462A4667
:100300004346BDE8F09F40EA01039B0703D009E0A4
:1003100008C9121F08C0042AFAD203E011F8013BF1
:1003200000F8013B521EF9D27047D2B201E000F84A
:10033000012B491EFBD270470022F6E710B5134689
:100340000A4604461946FFF7F0FF204610BD034653
:1003500011F8012B00F8012B002AF9D1184670473B
:100360002DE9FE4F804681EA0300C00F0C46009045
:1003700021F0004123F00045B8EB0200A94105D26D
:100380004046214690461C460B46024623F000405C
:10039000104347D0270DC7F30A00C3F30A51029058
:1003A000401A019040286BDAC3F3130040F4801B1D
:1003B0000098924620B10023D2EB030A63EB0B0BAB
:1003C00001985946C0F14002504600F007FA06462F
:1003D0000D4650465946019A00F01FFA10EB0800EE
:1003E0006141002487EA115284EAE7731A4340D03E
:1003F000009A62B3019A012A4FEA075215DC001BEA
:1004000061EB02014FF0004202EA0752CDE90042DF
:10041000001C41F5801132462B4600F056FA03B01D
:10042000BDE8F08F40462146F9E7001B61EB020171
:10043000001C41F5801300185B412018A2F500173D
:1004400047EB030140EAD570B6196D4111E06D0824
:100450004FEA360645EAC0754FEA0752001B61EBCA
:100460000201001C41F5801149084FEA30000019D3
:10047000514132462B4603B0BDE8F04F00F016BAAA
:100480000098012240000023D0EB020263EBE073EE
:10049000009821464FEAE074B8EB000061EB0401DC
:1004A000E9E783F000435BE781F0004158E72DE97D
:1004B000FE4F81EA030404F0004421F0004100945F
:1004C0004FF0000B23F0004350EA01045ED052EAE3
:1004D00003045BD0C3F30A54C1F30A552C44A4F2BD
:1004E000F3340194A0FB0254C1F3130141F48011D1
:1004F000C3F3130343F4801301FB024400FB034ED8
:10050000840A970A44EA815447EA8357A4FB0768A0
:1005100002958D0A05FB07854FEA932C04FB0C54CA
:100520002705029D4FEA065847EA1637B5EB08053E
:100530006EEB070C870E920E47EA811742EA831290
:10054000A7FB0201B6EB0B0164EB00042B0D43EAA1
:100550000C335E1844EB1C50DA465146E7FB0201AF
:10056000C5F313044FEA0B3343EA14534FEA043242
:10057000019C43EA0603A4F10C040294009CCDE91B
:1005800000B400F0A2F903B0BDE8F08F00200146EE
:10059000F9E72DE9F04D81EA030404F0004B21F066
:1005A000004514464FF0000A23F0004150EA0502CE
:1005B00020D054EA01021DD0C5F30A570246C5F304
:1005C0001303C1F31300C1F30A5640F4801543F43A
:1005D0008013A7EB0608101BD64608F2FD3873EB14
:1005E000050002D308F1010801E092185B41B8F15F
:1005F000000F03DA00200146BDE8F08D00204FF423
:100600008011064684460EE0171B73EB050705D3E1
:10061000121B63EB050306434CEA010C49084FEA41
:10062000300092185B4150EA0107EDD152EA030015
:1006300012D082EA040083EA0501084305D0101BAA
:10064000AB4106D20122002306E000224FF0004316
:1006500002E06FF0010253101AEB06004CEB085158
:1006600010EB0A0041EB0B01BDE8F04D00F01EB9A4
:100670000EB5C10F80EAE0700844CA07002140F2BD
:1006800033438DE80E000A460B4600F01EF903B016
:1006900000BD0EB540F2334102910021CDE90011B9
:1006A0000A460B4600F011F903B000BD70B5C1F366
:1006B0000A5201F000450024C1F3130140F2FF3358
:1006C00041F480119A4201DA002070BD40F23343B8
:1006D0009A42A2F2334203DC524200F08EF800E06C
:1006E00090402C43F1D0404270BDC1F30A5210B586
:1006F000C1F3130140F2FF3341F480119A4201DA51
:10070000002010BD40F233439A42A2F2334203DC90
:10071000524200F072F810BD904010BD00F000424F
:1007200030F000400AD0C10D01F56071C0F3160031
:1007300042EA0151C20840071143704700200146B8
:100740007047000030B5041E71F1000404DB4FF067
:100750000044404264EB0101141E73F1000405DB08
:100760001C464FF00043524263EB04038B4208BF28
:10077000824230BD30B5041E71F1000404DB4FF03D
:100780000044404264EB0101141E73F1000405DBD8
:100790001C464FF00043524263EB0403994208BFEA
:1007A000904230BD01F0004330B421F0004150EAE6
:1007B000010206D00A0DA2F56072C1F31301002AEE
:1007C00002DC30BC00207047440F44EAC104C10081
:1007D000E01830BC00EBC25000F031B8202A04DB36
:1007E000203A00FA02F1002070479140C2F1200344
:1007F00020FA03F3194390407047202A04DB203A83
:1008000021FA02F00021704721FA02F3D040C2F130
:1008100020029140084319467047202A06DBCB1777
:10082000203A41FA02F043EAE07306E041FA02F3AB
:10083000D040C2F120029140084319467047002978
:10084000A8BF7047401C490008BF20F00100704756
:1008500010B4B0FA80FC00FA0CF050EA010404BFB6
:1008600010BC704749B1CCF1200421FA04F411FA0C
:100870000CF118BF012121430843A3EB0C01CB1D50
:100880004FEA00614FEA102042BF002010BC7047C1
:1008900000EBC35010440029A4BF10BC7047401C9B
:1008A000490008BF20F0010010BC704710B5141EAD
:1008B00073F1000408DA401C41F1000192185B4119
:1008C0001A4301D120F0010010BD2DE9F04D9246F0
:1008D0009B4611B1B1FA81F202E0B0FA80F2203207
:1008E0009046FFF77BFF04460F4640EA0A0041EAC4
:1008F0000B0153465A46084313D0114653EA0100F0
:1009000019D0C8F140025046FFF777FF05460E4662
:10091000504659464246FFF761FF084305D0012083
:1009200004E020463946BDE8F08D0020054346EA44
:10093000E0762C4337430A986305E40AA0EB0800ED
:100940000022FD0A44EA47540A3002D5002001463D
:10095000E9E7010510196941DDE908450019694118
:10096000BDE8F04DA2E770B521F0004303430CD081
:10097000C1F30A550024D5EB040564EB0403D61734
:10098000AD1AB34102DB0020014670BD201841EBD7
:10099000025170BD2DE9F04D00231A461B1A8A4101
:1009A00003DB00200146BDE8F08DC1F30A52C1F31C
:1009B000130141F480154FF0000BD10702D100184C
:1009C0006D41521E0027044640F2FF11384601EBEC
:1009D000620A3E468046024600204FF48011FFF72F
:1009E0000CFFC2197141BB1846EB0100B4EB030CBC
:1009F00075EB000C04D3E41A65EB000517460E46B0
:100A0000241908F101006D4180463428E3DDF9190D
:100A100046EB0600091BA84103D24FF0FF321346F4
:100A200001E0002213461BEB070046EB0A51BDE82C
:100A3000F04DFFF73BBF0000064C074D06E0E068B5
:100A400040F0010394E8070098471034AC42F6D315
:100A5000FFF7B0FB3CCA00085CCA000870B58C18F0
:100A600010F8015B15F0070301D110F8013B2A11C2
:100A700006D110F8012B03E010F8016B01F8016BAF
:100A80005B1EF9D12B0705D40023521E0DD401F8AB
:100A9000013BFAE710F8013BCB1A921C03E013F874
:100AA000015B01F8015B521EF9D5A142D8D30020A9
:100AB00070BD0000464910B54A6822F440324A60D1
:100AC0004A6843681A434A6001684A6822F480729F
:100AD0004A6001684A68036942EA03224A60016881
:100AE0004A6822F040724A6001684A6883681A4383
:100AF0004A6001688A6822F400628A6001688A6834
:100B0000C3681A438A60816A6FF07062D1420168DB
:100B10008A6822F070628A6001688A680CD0836AF1
:100B20001A438A6001688A6822F040528A6001682C
:100B30008A68C36A1A4301E022F040528A60016861
:100B40008A6822F002028A6001688A68037E42EAAB
:100B500043028A6090F82010002901684A680FD08B
:100B600042F400624A6001684A6822F460424A60C6
:100B700001684A68174C436A04EB43331A4301E0A7
:100B800022F400624A600168CA6A22F47002CA62F2
:100B90000168CA6A838B104C04EB03531A43CA6280
:100BA00001688A6822F400728A6001688A6890F895
:100BB000303042EA43228A6001688A6822F4806207
:100BC0008A6001688A68406942EA8020886010BDB6
:100BD0000023014000E0FFFF0000F0FF30B50C46AD
:100BE00005000CD0022C0AD90548A11E028828460F
:100BF00000F0AAFB291901F8020D000A487030BD67
:100C00005C01002030B50C4605000AD0022C08D942
:100C1000601E81B2FF22284600F0ACFB291901F8C2
:100C2000010C30BD10B59FED200B07F081FA51EC9F
:100C3000100BFFF7B7FD1E4C9FED1E1B9FED1F0B0A
:100C4000206108F0A5F851EC100BFFF7ABFD00EEAA
:100C5000100ADFED1C0A84ED050A20EE200AF1EEF1
:100C60000C0A80EE201A9FED180A84ED141A84ED08
:100C7000060A84ED070A84ED080A84ED090A84ED6A
:100C80000A0A84ED0B0A84ED0C0A84ED0D0A84ED4A
:100C90000E0A84ED0F0A84ED100A84ED110A84ED2A
:100CA000120A84ED130A10BD000000000000F0BF1E
:100CB0002C1C0020000000000000E03F00000000AD
:100CC0000000004000000442000000002DE9F04751
:100CD00000242DED048B0AF073FA09F067FF8D48AC
:100CE00002F094FA04F0A4FA012004F081FA04F06E
:100CF000CBFD894800F0EAF9884800F0E7F99FED5C
:100D0000881ADFED880A4FF4FA67B1EE060A3B460F
:100D10007A000321844804F09DFD9FED848AB0EEA3
:100D2000481AF0EE480A9FED820A42F2107947F223
:100D300030554B462A4603217E4804F08BFD7A4805
:100D4000B0EE481AF0EE480AB0EE080A6B103A46C8
:100D50000321743004F07EFD764840F6B836B0EEDC
:100D6000481AF0EE480AB3EE040A33462A46032135
:100D7000743004F06FFDB0EE001ADFED6F8A4FF4AF
:100D800080452B46F0EE680AB1EE040A1A460421AB
:100D90006A4804F05FFD40F2DC58B0EE481AF0EE0D
:100DA000480AB3EE040A2B4642460321644804F085
:100DB00051FD62482B46B0EE481AF0EE680AB0EEDC
:100DC000080A1A460421743004F044FD5C48B0EE71
:100DD000481AF0EE480AB3EE040A2B4642460321B5
:100DE000743004F037FD55482B46B7EE001AF6EE86
:100DF000000AB1EE000A1A460421E83004F02AFD88
:100E00004F48B7EE001AF0EE480AB3EE040A2B463C
:100E100042460321E83004F01DFD4A4D44F62068A7
:100E200004EB4400F0EE480AC0EB441005EB8000F0
:100E3000B0EE601AB0EE000A3B464246042104F0D0
:100E400009FD641CE4B2042CEAD304249FED3E9A0D
:100E50004FF47A5704EB4400C0EB441005EB8000DC
:100E6000B1EE041AF0EE490AB2EE020A33463A46EF
:100E7000032104F0EFFC641CE4B2082CEAD3B6EEC4
:100E8000001AF0EE480AB0EE040A4B4640F6C412CF
:100E900003212E4804F0DEFC9FED2D8A4FF47A7476
:100EA0002346B3EE041AF0EE480A9FED2A0A1A46CA
:100EB0000321294804F0CEFC2346B0EE681AF0EE78
:100EC000480AB0EE490A1A460321244804F0C2FC3D
:100ED00001222349234802F053FF012220492148DF
:100EE00002F04EFF01222049204802F0FDFE03F0EF
:100EF00035F804F0BBFC09F0CDFA03F0C3F905485E
:100F000002F095F9BDEC048BC820BDE8F04700F075
:100F100071B8000058070020D80400200005002008
:100F20008FC2F53C0AD7233CD810002000000000F7
:100F300000008C4200190020CDCCCC3DE8190020E7
:100F400090130020EC140020CDCC4C3D441B00201D
:100F50000AD7A33B00004842B81B00208C18002091
:100F60004800002098080020CA000020D80800206F
:100F700070B520200AF0DAF80446194841F6FF71EE
:100F8000184D90ED040ABDEEC00A10EE100A90FB59
:100F9000F1F06868FFF7C2FBC4E9000195ED000AB3
:100FA000D5ED020A20EE200A10EE100AFFF7B6FB7C
:100FB000C4E902010C480088FFF76BFBC4E9040197
:100FC0000A480088FFF765FBC4E906012022214694
:100FD000074806F09DFF2046BDE8704009F08ABA38
:100FE000F80A00201C0C0020080000200A00002045
:100FF0001808002010B504460021064802F07CFBCA
:10100000204601F073F9BDE810400021014802F0CC
:1010100095BB0000980700200021014802F08EBB1C
:1010200098070020FEE70000014800F046BC0000E1
:10103000D8040020014800F040BC0000D804002083
:10104000014800F03ABC0000000500203EB51D48F4
:1010500001AC082301880A0A8DF804208DF80510D8
:10106000018B0A0A8DF806208DF80710018E0A0AF6
:101070008DF808208DF80910B0F848009A01010A8F
:101080008DF80A108DF80B0000210F48009400F035
:101090005BF80C49082364390888020A8DF804209B
:1010A0008DF80500888A40F2FF22010A8DF80610AB
:1010B0008DF807000020014602900094024800F0DD
:1010C00043F83EBD5C0B0020D804002010B5044658
:1010D0001B4B026800210E208AB09A4201D1059173
:1010E00003E0184B9A4200D105900122CDE9061287
:1010F00003910491CDE90820009101910291694684
:10110000204600F0C9FA08B100F01DF9022120467E
:1011100000F04CFA08B100F016F9204600F00CFF80
:1011200008B100F010F96946204600F0B5FA2046F3
:1011300000F002FF0221204600F038FA0AB010BD8C
:101140000064004000680040F0B587B000240C9EA9
:101150000746254649B10420CDE90120CDE90353D6
:101160008DF814504FF6FE7506E002950092F5E7F3
:10117000641CA4B2AC420FD8384600F088FB0028AB
:10118000F6D0012001F0B2F806AB32466946384687
:1011900000F01EFA002800D0012007B0F0BD0000CA
:1011A0003EB5224801AC082330F8601F0A0A8DF8CA
:1011B00004208DF80510018B0A0A8DF806208DF8A1
:1011C0000710018E0A0A8DF808208DF80910B0F872
:1011D00048009A01010A8DF80A108DF80B000021D1
:1011E00013480094FFF7B0FF104808233C380188EB
:1011F0000A0A8DF804208DF80510818A0A0A8DF8F4
:1012000006208DF80710008D40F2FF12010A8DF8BC
:1012100008108DF8090000208DF80A008DF80B00E9
:10122000014603480094FFF78FFF3EBD5C0B002092
:10123000000500200EB5010A8DF804108DF8050098
:1012400000208DF806008DF80700029001A800909C
:1012500008234FF4047200210148FFF775FF0EBD0B
:10126000D8040020014800F0ADBE0000780900203D
:10127000014800F0A7BE000018090020014800F056
:10128000A1BE0000380A0020014800F09BBE00000B
:10129000D8090020014800F095BE0000980A0020FF
:1012A00001681823CAB2103AB2FBF3F2054B6FF390
:1012B0000901032A9B5CC36500D9091D81650846A5
:1012C0007047000018C7000810B5014600208B6960
:1012D0008A6A4FF0C07453B1B3F5005F15D072B194
:1012E000012A0CD0022A0AD0032A09D104E01AB13B
:1012F000012A06D0022A03D1C96AC90100D50120FA
:1013000010BDC96AA142FAD010BD002AF7D0012A47
:10131000F2D0022AF3D0032AF3D010BD30B504680E
:10132000256825F480252560046863608368402B68
:10133000036803D099600068C26030BD9A6000689D
:10134000C16030BD7047704710B558B1084C491E98
:101350000BD310F8013B5340DBB234F8133083EA6F
:101360001222F4E74FF6FF7010BD104610BD0000CA
:1013700018C5000810B5064C04E000BF10F8013B8A
:101380005340E25C491E89B2F8D2104610BD0000FD
:1013900018C4000878B50024009490F83C20012A75
:1013A00019D0012280F83C200A6807230568092A21
:1013B00013D9EE680A3A02EB420293409E43EE6074
:1013C0000B788A680A3B03EB43039A400368DD68A5
:1013D0002A43DA6010E0022078BD2E6902EB420257
:1013E00093409E432E610B788A6803EB43039A4037
:1013F00003681D692A431A614A681F23072A13D20A
:1014000005686E6B521E02EB820293409E436E6330
:101410000A8893B20A79521E02EB82029340026854
:10142000556B2B43536327E005680D2A12D22E6BB0
:10143000D21F02EB820293409E432E630B790A88EF
:10144000DB1F92B203EB83039A4003681D6B2A43B0
:101450001A6311E0EE6A0D3A02EB820293409E435A
:10146000EE620B790A880D3B92B203EB83039A403C
:101470000368DD6A2A43DA621B4B0568194A9D42FC
:101480000AD10D68122D07D1556825F40005556065
:10149000556845F48005556005689D421DD1134D82
:1014A0000B68AB4201D0112B17D1536823F4800392
:1014B0005360536843F4000353600968A9420CD198
:1014C0000B490C4A0968B1FBF2F101EB81014900BB
:1014D00000E0491E00910029FBD180F83C4000202B
:1014E00078BD0000002301400020014012000010E0
:1014F000CC01002040420F0070B504004FF0000501
:1015000003D0206C002610B107E0012070BD2046FA
:1015100000F01CF8666484F83C60206CC00610D4AF
:10152000206C20F4885040F0020020642046FFF731
:10153000C1FA6664206C20F0020040F001002064D3
:1015400000E0012584F83C60284670BD10B586B0E7
:10155000044614216846FEF7EFFE114920688842D0
:101560001CD110480021026842F4807202600068B9
:1015700000F4807005900B481438026842F00102B4
:101580000260006800F001000590422000900320F6
:10159000CDE901016946044800F0BAFE06B010BD6D
:1015A00000200140443802400000024090F8202012
:1015B000012A07D0022A05D0416A41F48021416204
:1015C00001207047006842690A4342610020704769
:1015D000F0B590F820500468A468012D05D0022DC4
:1015E00003D0416A41F4802153E014F0406F01D1EF
:1015F000E5004BD5C4F30164022C03D9416A41F4E0
:10160000000146E00125A5401D608D684FF4C073C0
:101610009DB1CE6835434E6845EAC605066803EBC2
:101620000417F5514FF4C275076805EB04150E69F0
:101630007E51097D012905D009E00E88CD6845EA73
:101640004655EBE701684E5946F480764E511179C4
:10165000D2F805504FF4C67641EA0525016806EB3D
:1016600004168D511178D2F801204FF4C47541EA67
:101670000221026805EB04155151006803EB0411C7
:10168000425842F0010242500020F0BD416A41F44C
:10169000001141620120F0BD10B590F82020012A10
:1016A00007D0022A05D0416A41F48021416201201D
:1016B00010BD3B48D0F8002242F00102C0F80022E1
:1016C000D0F8002222F47C52C0F80022D0F8002288
:1016D0004B6A42EA0322C0F800220A7D02F01F038F
:1016E00001229A40D0F81C329343C0F81C32CB69D7
:1016F000B3B9D0F80C329343C0F80C328C894B68E4
:1017000064F31F434C6900EBC404C4F840320C89F5
:101710000B6864F31F434C6900EBC404C4F8443203
:10172000CB69012B16D1D0F80C321343C0F80C3220
:101730000C884B6864F31F434C6900EBC404C4F885
:1017400040320C89CB6864F31F434C6900EBC4043E
:10175000C4F844328B69002BD0F804320ED0134306
:10176000C0F804320B69002BD0F8143208D01343B0
:10177000C0F81432096A012904D008E09343EFE766
:101780009343F5E7D0F81C121143C0F81C12D0F8AF
:10179000001221F00101C0F80012002010BD00006D
:1017A00000640040704730B590F82040012C05D00F
:1017B000022C03D0416A41F480215DE004680029D5
:1017C00055D02469A40754D04FF4D874056804EBAD
:1017D00001142D5915F00405956005682D594ED05A
:1017E000ED08556005682C5904F00204D4604FF4EC
:1017F000DA74056804EB01142D5905F00F05156125
:1018000005682D59C5F30725956105682C59240CE9
:1018100054614FF4DC72046802EB0112A4581C708E
:101820000468A458240A5C700468A458240C9C70B2
:101830000468A258120EDA704FF4DE72046802EBEC
:101840000112A4581C710468A458240A5C7104682D
:10185000A458240C9C710468A258120EDA71006816
:1018600081B1016941F020010161002030BDE468CF
:10187000A8E7416A41F400114162012030BD6D0DBD
:101880001560AFE7C16841F02001C160EDE7024695
:10189000002092F82010012901D002290CD11168F2
:1018A0008A68520100D501208A68120100D5401CC7
:1018B0008968C90000D5401C70472DE9F05F0546D6
:1018C000006800244669D0F804908768D0F80CB00E
:1018D000D0F810A0D0F81880F10748D0F90714D03C
:1018E00001218160B80703D5284600F052FB0CE0C7
:1018F000780702D54FF4006407E0380702D54FF4AB
:10190000805402E0284600F043FBF80516D529680C
:101910004FF480708860B80503D5284600F03BFB83
:101920000CE0780502D544F4005407E0380502D5F0
:1019300044F4804402E0284600F02CFBF80316D55E
:1019400029684FF480308860B80303D5284600F03A
:1019500024FB0CE0780302D544F4004407E038038C
:1019600002D544F4803402E0284600F015FB30072D
:1019700007D55FEACB6004D52968102044F40074D1
:10198000C86070074FF0080707D55FEA0B7004D5F1
:101990002868C760284600F0A1F9B00706D5286876
:1019A000C068800702D0284600F09AF9700607D573
:1019B0005FEACA6004D52968102044F48064086195
:1019C000B00607D55FEA0A7004D528680761284683
:1019D00000F0AEFAF00606D528680069800702D04C
:1019E000284600F0A6FAB00308D55FEAC96005D51D
:1019F000296810204860284600F09CFAF00307D5BB
:101A00005FEA097004D528684760284600F0C6FAE6
:101A1000300446D55FEA497040D5F00504D55FEA49
:101A2000C87001D044F00104B00504D55FEA8870A5
:101A300001D544F00204700504D55FEA487001D571
:101A400044F00404300529D518F0700F26D008F0B2
:101A50007000402815D006DC102809D020280AD0B4
:101A6000302816D10AE050280ED0602811D10EE09F
:101A700044F008040DE044F010040AE044F02004AF
:101A800007E044F0400404E044F0800401E044F442
:101A900080742868816921F07001816129680420BF
:101AA0004860002C05D0686A204368622846FFF72A
:101AB00079FEBDE8F09F70B5040003D094F82000D3
:101AC00010B104E0012070BD204600F081F82068CC
:101AD000016821F00201016000F010FD05460526B5
:101AE00004E000F00BFD401B0A2811D82068406874
:101AF0008007F6D42068016841F00101016000F020
:101B0000FDFC05460BE000F0F9FC401B0A2806D955
:101B1000606A40F40030606284F82060D2E7206898
:101B20004068C007EFD0207E0128206801683DD0C2
:101B300021F080010160607E01282068016838D0B2
:101B400021F040010160A07E01282068016833D0A7
:101B500021F020010160E07E0128206801682ED07C
:101B600041F010010160207F01282068016829D020
:101B700021F008010160607F01282068016824D0FD
:101B800021F004010160D4E902010843D4E9041200
:101B9000114308436168491E08432168C861002059
:101BA0006062012084F82000002070BD41F08001B7
:101BB000C0E741F04001C5E741F02001CAE721F04C
:101BC0001001CFE741F00801D4E741F00401D9E763
:101BD000F0B587B0044614216846FEF7ADFB3A4BDA
:101BE0003A48DFF8E0E01968D4F800C0374A032526
:101BF0000226092710300024491CF4452AD1196017
:101C0000012907D1016841F000710160006800F00E
:101C100000700590106840F0080010601068CDE971
:101C2000005600F00800CDE9047069462848CDE967
:101C3000024500F06DFB00220521132000F0D0FCCE
:101C4000132000F0BFFC00220521142000F0C8FC86
:101C5000142033E0DFF87CE0F44531D1D0F800C047
:101C60004CF0806CC0F800C0D0F800C001290CF026
:101C7000806CCDF814C0196007D1016841F0007183
:101C80000160006800F000700590106840F00200EC
:101C90001060106802AB00F0020005904FF4405055
:101CA000CDE9000683E8B00069460B4800F030FB40
:101CB00000220521402000F093FC402000F082FC2F
:101CC00007B0F0BD0064004028000020303802401A
:101CD000000C024000680040000402407047000011
:101CE0002DE9F041074600688749884E0025884C59
:101CF0008AB04FF4FA7888427DD107AB6A4600215A
:101D00008448FFF750FD002875D10098A0F201200B
:101D100003281ED82188C0B2491C21809DF81D10BF
:101D20009DF81C2000EB400006EBC00001EB0221F7
:101D300041809DF81F109DF81E2001EB022181813A
:101D40009DF821109DF8202001EB0221C18105742E
:101D500084E00098A0F5007111390BD001466B4862
:101D6000A1F500726438093A4DD0A1F500720A3A23
:101D70005ED073E02088401C2080BDF81C0000EE7F
:101D8000100AF8EE400A9FED640A604880EE801A5F
:101D9000C03080ED001ABDF81E1000EE901AB8EEAB
:101DA000601AC1EE000AC0ED010ABDF8201001EE74
:101DB000101AB8EE411AC1EE001AC0ED021ABDF8B1
:101DC000221001EE101AF8EE411A81EE801A80ED11
:101DD000031ADFED521A50EEA01A9FED512A514816
:101DE00030F8012FC1EE820A20EE800ABDEEC00A53
:101DF00010EE101A00E037E061F30C1211EE101A29
:101E0000028081602AE02188491C2180BDF81C10D5
:101E100049BA4180BDF81E1049BA8180BDF8201032
:101E200049BAC1809DF8221001723848643813E025
:101E30002188491C2180BDF81C1049BAC182BDF817
:101E40001E1049BA0183BDF8201049BA41839DF89C
:101E5000221001772D48503808F074FB2088404547
:101E600002D1258002F016FA2F493868884248D1FD
:101E700007AB6A4600212D48FFF795FC002840D1AA
:101E80000098A0F20120032810D86088401C6080D0
:101E900000989DF81D10C01CC0B29DF81C2000EBDE
:101EA000400001EB022106EBC00014E00098A0F214
:101EB000052003281FD26188C0B2491C61809DF8AB
:101EC0001D109DF81C2001EB022100EB80020F4841
:101ED0003C3800EB820041809DF81F109DF81E20C9
:101EE00001EB022181819DF821109DF8202001EB5A
:101EF0000221C18105746088404502D1658002F0ED
:101F0000D1F90AB0BDE8F081006400405C0B00200C
:101F10004A000020D80400200000C842000080438E
:101F20000000A043501F0020006800400005002072
:101F3000704770477047000070B5044690F8200065
:101F4000012804D0606A40F40020606218E002209A
:101F500084F820002068016821F00101016000F090
:101F6000CDFA05460EE000BF00F0C8FA401B0A2873
:101F700008D9606A40F400306062052084F82000CF
:101F8000012070BD20684068C007EDD1606270BD5F
:101F9000704770477047704770477047704790F8B8
:101FA0003510022903D080214165012070470521A9
:101FB00080F835100068016821F0010101600020FF
:101FC000704700002DE9F84304464FF00009CDF8B2
:101FD000009063484FF41651A56D0068B0FBF1F70F
:101FE0002E6894F85C10082000FA01F131420FD0FD
:101FF00021680A6852070BD50A6822F004020A60B9
:1020000094F85C108840A860606D40F00100606545
:1020100094F85C104FF0010808FA01F0304208D043
:1020200021684969090604D5A860606D40F0020086
:10203000606594F85C1004208840304208D0216824
:102040000968890704D5A860606D40F004006065E8
:1020500094F85C1010208840304218D0216809683C
:10206000090714D5A86020680168490304D50068F1
:10207000000308D5A16C07E00168C90503D4016815
:1020800021F008010160216C09B12046884794F8CD
:102090005C1020208840304231D021680968C90690
:1020A0002DD5A86094F8350005282068016806D071
:1020B000490347D5006800031DD4616C1CE021F082
:1020C000160101602068416921F080014161206CA6
:1020D00008B9A06C20B12068016821F008010160F6
:1020E00094F85C103F208840A86084F8349084F80D
:1020F0003580216D1FE0E16B09B120468847606D96
:1021000000282BD0606DC00714D0052084F835005E
:102110002068016821F0010101600098401C0090D6
:10212000B84203D820680068C007F6D184F834901C
:1021300084F83580E16C002910D001B02046BDE85C
:10214000F04308470168C905D5D4016821F01001A2
:10215000016084F8349084F83580CCE7BDE8F883DA
:10216000CC0100202DE9F041044600F0C7F90646F5
:102170005CB1002584F83450022084F835002068D2
:10218000016821F0010101600DE00120BDE8F0814E
:1021900000F0B4F9801B052805D9202060650320D4
:1021A00084F83500F2E720680068C007F0D12268A3
:1021B000116820480140D4E901031843D4E90336EB
:1021C0003343184363691843A3691843E369184309
:1021D000236A18430843616A042903D1D4E90B1325
:1021E00019430843106020684069666A20F00701BF
:1021F00030460E43012704280CD1A06A0643E06A4A
:1022000040B12046FFF760F820B14020606584F8B7
:102210003570BAE7206846612046FFF741F894F828
:102220005C203F2191408160656584F83570002015
:10223000ACE700003F8010F070B5044690F8340021
:10224000002501280CD0012084F8340094F8356072
:102250000020012E06D084F834000225284670BDE7
:10226000022070BD022684F8356060652046FFF7C5
:1022700055F82068016841F001010160EEE72DE9A1
:10228000F0410446866D90F83400002501280DD0F9
:10229000012084F8340094F835700020012F07D015
:1022A00084F8340002252846BDE8F0810220FBE7CF
:1022B000022784F8357060652046FFF72FF894F800
:1022C0005C103F208840B0602068016841F0160132
:1022D0000160206C20B12068016841F008010160B4
:1022E0002068016841F001010160DCE770B5044637
:1022F00000F004F90546601C02D00448007804444C
:1023000000F0FCF8401BA042FAD370BD6001002031
:102310002DE9F84F00224FF0010803254FF00F0E72
:102320000B6808FA02F42340A3426ED14E68012ED6
:1023300005D0022E03D0112E01D0122E12D18668A4
:102340004FEA420C05FA0CF7BE43CF6807FA0CF7C8
:10235000374387604668A6430C79C4F30014944061
:1023600034434460C668570005FA07FC8C6826EAC7
:102370000C06BC403443C4604C68022C01D0122CC3
:1023800013D1D40800EB8404A346D4F8209054075A
:102390004FEAD46A0EFA0AF629EA06090E6906FA25
:1023A0000AF646EA0906CBF8206004680E7924EAAA
:1023B0000C0406F00306BE40264306604C68E400A9
:1023C0006FD53B4C266846F480462660246822F090
:1023D000030604F480440094364C3444A446D4F8F4
:1023E00008489607360F0EFA06F7BC43324FB8423C
:1023F00001D100272EE0314FB84201D1012729E059
:102400002F4FB84202D1022724E04AE02D4FB842B4
:1024100001D103271EE02C4FB84201D1042719E057
:102420002A4FB84201D1052714E0294FB84201D103
:1024300006270FE0274FB84201D107270AE0264FB1
:10244000B84201D1082705E0244FB84201D109273D
:1024500000E00A27B7402743CCF80878204E3468BC
:102460004F689C43FF0300D51C4334601C4E361D4F
:1024700034684F689C43BF0300D51C433460184E3A
:10248000083634684F689C43FF0200D51C43346013
:10249000134E0C3634684F689C43BF0200D51C4372
:1024A0003460521C102AFFF43BAFBDE8F88F0000E7
:1024B0004438024000300140000002400004024065
:1024C00000080240000C02400010024000140240CC
:1024D00000180240001C024000200240002402407C
:1024E000003C0140426931EA020200D109048161E5
:1024F00070470AB1816170470904FBE701488068B1
:102500007047000060010020024881680278114491
:1025100081607047600100200B4810B5016841F4EC
:1025200000710160016841F480610160016841F45B
:1025300080710160032000F073F80F2000F006F8AE
:1025400000F024F8002010BD003C024070B50D4D95
:1025500004464FF47A712878B1FBF0F00A49096813
:10256000B1FBF0F000F04DFD48B9102C07D200226D
:102570002146501E00F034F800206C6070BD012030
:1025800070BD000060010020CC0100200C4882B02A
:10259000016841F480410160006800F480400090CF
:1025A0000748001F016841F0805101600068002267
:1025B00000F0805000900F21901E02B000F010B883
:1025C00044380240002809DB00F01F02012191403D
:1025D0004009800000F1E020C0F8001170470000C1
:1025E000F0B40E4B1B680C46C3F30223C3F107057E
:1025F000042D00D90425191D072901D2002300E06C
:10260000DB1E012606FA05F1491E214099409E4035
:10261000761E16403143F0BC05F07ABD0CED00E0AB
:10262000064900F0070208684FF6FF03184040EA29
:102630000220034A10430860704700000CED00E0E0
:102640000000FA052DE9F0470E46050065D0DFF8D9
:102650001481D8F80000F7B200F00F00B04207D2A2
:1026600088F80070D8F8000000F00F00B04254D194
:1026700028683D4C810712D5400703D5206840F4F7
:10268000E05020602878000703D5206840F46040BF
:1026900020602068A96820F0F000084320602878B6
:1026A000C0072DD0304968680839012812D00228A7
:1026B00013D0032811D00968890700292DDA216871
:1026C00021F0030101432160FFF718FF814641F229
:1026D000883A0EE009688903EFE709688901ECE7A9
:1026E000FFF70CFFA0EB0901514502D90320BDE81B
:1026F000F0872068696800F00C00B0EB810FEFD123
:10270000D8F80010404601F00F01B14207D9077018
:10271000006800F00F00B04201D00120E7E7287800
:10272000400705D52068E96820F4E05008432060A0
:102730002878000706D52068296920F4604040EA1F
:10274000C100206000F038F82168084AC1F3031185
:10275000515CC8400649086006480068FFF7F6FE6D
:102760000020C4E7003C02400838024020C70008AF
:10277000CC01002064010020044805490068096874
:10278000044AC1F38221515CC8407047CC0100204B
:102790000838024030C70008044805490068096845
:1027A000044AC1F34231515CC8407047CC0100205B
:1027B0000838024030C70008154810B5006810F00E
:1027C0000C02144813D01449042A0FD0082A0ED141
:1027D0000F4C241F2268236802F03F025B0207D5DA
:1027E0002068C0F38810A0FB010106E0084610BD78
:1027F0002168C1F38811A1FB00010023FDF752FD00
:102800002168C1F30141491C4900B0FBF1F010BD42
:10281000083802400024F400001BB7002DE9F84FEF
:1028200004006ED02078DFF83C93C007A9F10405BE
:102830004AD009F104000168C1F38101012908D0DF
:102840000068C0F3810002280AD1D9F800004002D4
:1028500006D52868800337D560680028E1D033E0CA
:102860006068B0F5803F10D0B0F5A02F286810D078
:1028700020F480302860286820F480202860606878
:10288000A8B1FFF73BFE06460DE0286840F4803013
:10289000F4E740F480202860F7E700BFFFF72EFE42
:1028A000801B642873D828688003F7D50CE0FFF7F5
:1028B00025FE064605E000BFFFF720FE801B6428CA
:1028C000F0D828688003F7D42078DFF89C8280074E
:1028D0004FF0000A3ED5A348001D016811F00C0F0F
:1028E00008D00068C0F3810002280BD1D9F800009D
:1028F000400207D42868800716D5E068012800D177
:1029000012E02BE1E068B8B10120C8F80000FFF741
:10291000F5FD064605E000BFFFF7F0FD801B02282D
:10292000C0D828688007F7D52868216920F0F8000A
:1029300040EAC10028600DE0C8F800A0FFF7DEFD06
:10294000064604E0FFF7DAFD801B02281FD828683E
:102950008007F7D42078000722D5824E834861692A
:10296000703671B101210160FFF7C8FD074604E030
:10297000FFF7C4FDC01B022809D830688007F7D5CF
:102980000EE0C0F800A0FFF7B9FD074605E082E0C1
:10299000FFF7B4FDC01B02287DD830688007F7D44C
:1029A0002078400768D5DFF8BCB100270BF13C0B5D
:1029B000DBF80000C0000BD4DBF8001041F08051C0
:1029C000CBF80010DBF80000012700F080500090E9
:1029D000674E3068C00510D4306840F480703060B5
:1029E000FFF78CFD009005E0FFF788FD0099401A85
:1029F000022850D83068C005F6D55A4EA0686C360B
:102A000001280FD00528306810D020F00100306078
:102A1000306820F004003060A068B8B1FFF76EFDA8
:102A200000900FE0306840F00100F4E740F004004F
:102A30003060F7E7FFF762FD0099411A41F28830F4
:102A4000814266D830688007F4D50EE0FFF756FD66
:102A5000009007E0FFF752FD0099411A41F28830DB
:102A6000814256D830688007F4D42FB1DBF80010CB
:102A700021F08051CBF80010A069C8B33949091D75
:102A80000968C1F3810102294AD00228504607D0C3
:102A9000C8F8600000E03CE0FFF730FD04463BE092
:102AA0004746C8F86000FFF729FD064605E000BF6D
:102AB000FFF724FD801B02282BD828688001F7D45B
:102AC000D4E907010843A16A2A4A490802EB0141F7
:102AD000626A41EA8211084394F82C1040EA0161CD
:102AE000C9F8001001203866FFF708FD044606E02B
:102AF00036E000BFFFF702FD001B022809D8286856
:102B00008001F7D52CE000BFFFF7F8FC001B02287E
:102B100002D90320BDE8F88F28688001F4D41FE0B3
:102B20000128F7D0D9F80000E26900F48001914251
:102B300014D1226A00F03F0191420FD147F6C071D3
:102B4000626A0140914209D1A26A00F44031914287
:102B500004D1E16A00F07060884201D00120D9E719
:102B60000020D7E70438024000004742800E474269
:102B7000007000400000FFFF70B5040005D0002584
:102B8000A56294F8510010B106E0012070BD84F8F0
:102B90005050204600F030F8022084F851002068A0
:102BA000016821F040010160D4E901010843D4E942
:102BB00003121143084361690843218B01F400713A
:102BC0000843E1690843216A0843A16A0843216870
:102BD0000860A069042101EA1040616A0843216885
:102BE00048602068C16921F40061C1616565012008
:102BF00084F85100002070BDF0B587B00446142160
:102C00006846FDF799FB2A48284B2268002428498A
:102C100014380225032605279A4227D10A6842F470
:102C200080520A60096801F480510591016841F001
:102C300002010160016801F002010591016841F0A3
:102C400001010160006802AA00F00100059018204F
:102C5000CDE9000582E8D00069461648FFF758FB29
:102C60008020CDE900056946134818E0134B9A42CD
:102C70001AD10A6842F480120A60096801F48011CE
:102C80000591016841F0200101600068694600F08B
:102C9000200005904FF46070CDE90005084802AAB5
:102CA00082E8D000FFF734FB07B0F0BD00300140F0
:102CB000443802400004024000000240005001403D
:102CC000001402402DE9F84F044690F85000002708
:102CD0001D461646894601280DD04FF0010B84F899
:102CE00050B0FFF70BFC804694F85100BA4601281B
:102CF00004D002278EE00220BDE8F88FB9F1000F62
:102D00007DD0002E7BD0032084F85100C4F854A05D
:102D1000C4F83090A686E686C4F838A0A4F83CA093
:102D2000A4F83EA0C4F844A0C4F840A0A068B0F540
:102D3000004F04D12068016841F48041016020689F
:102D40000168490603D4016841F040010160E06870
:102D5000B0F5006F606803D030B3012E24D040E09E
:102D600008B1012E1CD1206B21680088C86006E0E4
:102D700020688168890709D5216B0988C160206BAB
:102D8000801C2063E08E401EE08609E0FFF7B6FB62
:102D9000A0EB0800A84202D3681C01D031E07DB34B
:102DA000E08E0028E4D11FE0206B216800780873D2
:102DB00006E020688168890709D5216B09780173CD
:102DC000206B401C2063E08E401EE08609E0FFF788
:102DD00095FBA0EB0800A84202D3681C01D010E0CC
:102DE00075B1E08E0028E4D142462946204604F021
:102DF00009FB08B120206065A06820B107E008E069
:102E0000FFE7032706E02068C16880680090606DD6
:102E100000B1012784F851B084F850A038466BE720
:102E20002DE9F84F044690F8500000270A9E1D46F1
:102E300092468B464FF0010901280ED0012084F8FC
:102E40005000FFF75BFB804694F851006168012851
:102E50000CD0B1F5827F07D102E00220BDE8F88FE7
:102E6000A16809B9042801D00227C2E0BBF1000F14
:102E700027D0BAF1000F24D01DB394F851000428D4
:102E800002D0052084F8510000206065C4F838A005
:102E9000E587A587C4F830B0E586A5862064606420
:102EA00020680168490603D4016841F040010160CF
:102EB000E068B0F5006F606805D0E8B3012D46D03A
:102EC0007FE0012795E008B1012D39D1206B216801
:102ED0000088C860206B801C2063E08E401EE08666
:102EE0002EE02068816889070FD5E18E69B1B9F1BC
:102EF000010F0AD1216B0988C160206B801C2063FF
:102F0000E08E401EE0864FF0000920688168C90706
:102F10000CD0E18F51B1C068A16B0880A06B801C00
:102F2000A063E08F401EE0874FF00109FFF7E6FA4B
:102F3000A0EB0800B04200E009E001D3701C50D1C2
:102F4000E08E0028CDD1E08F0028CAD13FE0206B71
:102F5000216800780873206B401C2063E08E401EBF
:102F6000E0862EE02068816889070FD5E18E69B17F
:102F7000B9F1010F0AD1216B09780173206B401C54
:102F80002063E08E401EE0864FF0000920688168D3
:102F9000C9070CD0E18F51B1C068A16B0870A06B5C
:102FA000401CA063E08F401EE0874FF00109FFF74F
:102FB000A5FAA0EB0800B04202D3701C01D010E0CB
:102FC0007EB1E08E0028CDD1E08F0028CAD14246E4
:102FD0003146204604F016FA28B10127202060650A
:102FE00007E0032705E0A06818B92068C168806879
:102FF0000090012084F85100002084F850003846E9
:103000002CE710B5401EB0F1807F01D3012010BD28
:103010004FF0E02460610F21601705F079F800207F
:10302000A06107202061002010BD7047704710B5D7
:1030300090F83C20012A22D0012280F83C20CA6866
:103040008C6822F4407222434C6822F4806222434E
:103050000C6822F4006222430C6922F4805222435D
:103060004C6922F400522243C969002322F48042B1
:103070000A4301684A6480F83C30002010BD0220F9
:1030800010BD000070B590F83C20012A32D0012418
:1030900080F83C40022280F83D2003685A689D6811
:1030A00022F070060A6832435A60134B02689A4253
:1030B00014D0B2F1804F11D0104B9A420ED0104B69
:1030C0009A420BD00F4B9A4208D00F4B9A4205D030
:1030D0000E4B9A4202D00E4B9A4204D1496825F019
:1030E00080031943916080F83D40002180F83C1036
:1030F000084670BD022070BD000001400004004081
:1031000000080040000C0040000401400040014065
:103110000018004010B5040003D094F83D0010B131
:1031200007E0012010BD002084F83C00204600F09C
:103130000DF8022084F83D00211D206804F072FB88
:10314000012084F83D00002010BD000008B5016892
:103150002948B1F1804F0AD0284A914216D101681E
:1031600041F004010160006800F0040018E001680B
:1031700041F0010101600068002200F001000090B0
:1031800005211C20FFF72CFA1C2030E01C4A91423C
:1031900008D1016841F008010160006800F00800F2
:1031A000009008BD174A91420ED1016841F010010C
:1031B00001600068002200F0100000900521362018
:1031C000FFF70EFA362012E00F488142E9D10A4893
:1031D000001D016841F4802101600068002200F4B4
:1031E0008020009005211A20FFF7FAF91A20BDE887
:1031F0000840FFF7E7B900004038024000080040EF
:10320000000C004000100040004801400168CA68FE
:1032100042F00102CA600068816801F007010629D6
:1032200003D0016841F0010101600020704701688E
:10323000CA6822F00102CA600068016A41F21112F4
:10324000114207D1016A9210114203D1016821F0A5
:10325000010101600020704770B5044690F83C0001
:10326000012817D0012584F83C50022084F83D0045
:103270002068826822F0770222F47F428260086828
:10328000502830D00DDC20284DD005DC98B3102814
:103290003BD148E0022070BD302844D0402834D1D2
:1032A00039E0602828D0702806D0B0F5805F2CD097
:1032B000B0F5005F29D10AE0CB68D1E9012120688F
:1032C00004F021FB2068816841F0770109E0CB68B8
:1032D000D1E90121206804F016FB2068816841F4DF
:1032E0008041816011E0CA684968206804F0E0FB11
:1032F0005021206807E016E0CA684968206804F099
:10330000E8FB6021206804F008FB84F83D500020B1
:1033100084F83C0070BDCA684968206804F0C8FBA6
:1033200040212068EFE7226801461046EBE770472E
:1033300070B50446006801694FF00005C94389076C
:1033400015D4C168C943890711D4E91E0161012060
:103350002077206880698007204602D0FFF7E7FFCA
:1033600004E000F009F9204600F0C4F92577206850
:103370000169C943490717D4C168C943490713D430
:103380006FF004010161022020772068806910F449
:10339000407F204602D0FFF7CAFF04E000F0ECF8BF
:1033A000204600F0A7F9257720680169C94309077D
:1033B00016D4C168C943090712D46FF0080101612E
:1033C000042020772068C0698007204602D0FFF7DC
:1033D000AEFF04E000F0D0F8204600F08BF925772E
:1033E00020680169C943C90617D4C168C943C90621
:1033F00013D46FF010010161082020772068C069A4
:1034000010F4407F204602D0FFF791FF04E000F067
:10341000B3F8204600F06EF9257720680169C943AA
:10342000C90708D1C168C943C90704D1891E016110
:10343000204600F0B1F920680169C943090609D4A2
:10344000C168C943090605D46FF0800101612046B7
:10345000FFF7EBFD20680169C943490609D4C1683B
:10346000C943490605D46FF040010161204600F0D0
:10347000D7F920680169C94389060BD4C168C943DB
:10348000890607D46FF0200101612046BDE8704035
:10349000FFF7CCBD70BD000030B587B004461421E5
:1034A0006846FCF749FF24682B4800222B49022379
:1034B000844212D1086840F001000860086869463B
:1034C00000F0010005904FF470600090CDE90132EA
:1034D0000120CDE90320224811E02248844212D184
:1034E000086840F0020008600868694600F00200C1
:1034F000059020200090CDE901321B4815E0FEF731
:1035000007FF07B030BD194D1948AC4210D10C6807
:1035100044F080040C60096801F0800105914FF4CB
:1035200040610091CDE901326946CDE90323E6E728
:10353000104DAC42E5D10C6844F080040C60096881
:1035400001F08001059140210091CDE9013209216E
:10355000CDE903216946D2E700000140303802403E
:10356000000002400004004000040240000C004043
:10357000001C024000180040704770B5044690F8E7
:103580003C000D4601280DD0012684F83C60022045
:1035900084F83D0042B1042A18D0082A2AD00C2A07
:1035A0004DD139E0022070BD206804F0BFF92068D9
:1035B000816941F0080181612068816921F004017D
:1035C0008161206881692A69114311E0206804F053
:1035D000DDF92068816941F40061816120688169B9
:1035E00021F480618161206881692A6941EA0221B0
:1035F000816124E0206804F0FFF92068C16941F08E
:103600000801C1612068C16921F00401C16120681D
:10361000C1692A69114311E0206804F021FA206889
:10362000C16941F40061C1612068C16921F4806110
:10363000C1612068C1692A6941EA0221C16184F837
:103640003D60002084F83C0070BD10B5040003D03C
:1036500094F83D0010B107E0012010BD002084F86F
:103660003C00204600F00CF8022084F83D00211DAB
:10367000206804F0D7F8012084F83D00002010BD38
:1036800008B501681748814212D11748016841F016
:10369000010101600068002200F001000090052196
:1036A0001A20FEF79DFFBDE808401A20FEF78ABFEA
:1036B0000D480E4A001F914207D1016841F00201F6
:1036C0000160006800F0020009E0094A914207D158
:1036D000016841F040010160006800F04000009086
:1036E00008BD0000000001404438024000040040D2
:1036F000001800407047000010B504460068012221
:1037000004F0F4F80B492068884202D00A49884244
:1037100003D1416C41F4004141642068816801F0AB
:103720000701062903D0016841F001010160002072
:1037300010BD0000000001400004014010B5044627
:103740000068002204F0D2F8114841F211122168F9
:103750009310814202D00F48814209D1086A104279
:1037600006D1086A184203D1486C20F4004048642E
:103770002068016A114206D1016A194203D1016829
:1037800021F001010160012084F83D00002010BDFE
:1037900000000140000401401B4902680B681B49FE
:1037A0009A4208D10A884FF4FA53521C92B20A8006
:1037B0009A4200D30B80164A904223D1154890EDCF
:1037C000110A164881ED020AD1ED010A30EE601AA5
:1037D000DFED110A21EE201A81ED031A81ED010AB5
:1037E000B0F9160000EE100AB8EEC00A81ED050A25
:1037F00091ED041A30EE411A61EE200AC1ED060A7D
:1038000081ED040A70470000580700202C000020BA
:10381000180600202C0C00200000C842F80A0020E6
:10382000704701680A680A68D243D20703D14A6820
:103830006FF001020A6001680A68D243920703D45C
:103840004A686FF002020A6001680A68D2435207B0
:1038500003D44A686FF004020A6000680168C94333
:10386000090703D4C1686FF008010160704710F8C0
:10387000391F40780843704770B5026804461068E5
:10388000D168536910F00F0F52D003F0010501F415
:1038900090762E435FD0C20705D0CA0503D5E26BF0
:1038A00042F00102E263420705D5DA0703D0E26B7A
:1038B00042F00202E263820705D5DA0703D0E26B29
:1038C00042F00402E263020707D501F020022A4316
:1038D00003D0E26B42F00802E263E26B002A33D0CD
:1038E000800604D5880602D5204604F0A4F9206895
:1038F0004069E16BC0F38010090700D428B320466B
:1039000004F072F92068416949061AD5416921F02D
:1039100040014161606BA0B11B490165606BFEF71E
:103920003EFB002810D0606B016DBDE87040084779
:10393000830610D58B060ED52046BDE8704004F0F6
:103940007AB92046FFF76DFF70BD2046FFF769FF8B
:103950000020E06370BD030606D50B0604D52046A3
:10396000BDE8704004F046BA4006F3D54806F1D5EC
:10397000D168204621F04001D160202184F839101F
:1039800000F0DCFA70BD0000117B000870B5040087
:1039900004D094F83900002510B106E0012070BD74
:1039A00084F83850204600F023F8242084F83900A9
:1039B0002068C16821F40051C160204604F086F9F6
:1039C0002068016921F4904101612068416921F07A
:1039D0002A0141612068C16841F40051C160E5637A
:1039E000202084F8390084F83A00002070BD0000DF
:1039F0002DE9F04F87B0044614216846FCF79CFC83
:103A0000AC48DFF8AC821038D4F800C0A94F0222CD
:103A100003210823DFF8A0E2002506154FF0010B73
:103A20004FF48079C4455BD1D7F800C0AA464CF06A
:103A3000804CC7F800C03F6807F0804705970768CB
:103A400047F010070760006800F010000590CDE90E
:103A50000313C8018DE8050869467046FEF758FC57
:103A6000DFF85C82954940464FF02067C8F80010A7
:103A7000C0E90175C0E90356C8F81450C0E90659F9
:103A8000C8F82050C8F82450FEF76CFB08B1FDF7C9
:103A90005AFC8B4D8948C4F8348060353038C8F8FA
:103AA0003840C5E900074020A860C5E903A6C5F86D
:103AB00014A0C5F818A0C5F81CA0C5F820A0284679
:103AC000C5F824A0FEF74EFB08B1FDF73CFC2563CA
:103AD000002205215220AC63FEF782FD522021E036
:103AE000DFF8E081C44522D13C6844F000443C60EA
:103AF0003C6804F000440594046844F01004046039
:103B0000006800F0100005908DE80608CDE9031369
:103B100069467046FEF7FCFB002205215320FEF7A4
:103B20005FFD5320FEF74EFD07B0BDE8F08FDFF8D4
:103B30009881DFF880A14FF0070B0AF1040AC44511
:103B40003BD1DAF8007047F01007CAF80070DAF8D5
:103B5000003003F010030593036843F00203036091
:103B60000068CDE9025100F002000590C020CDE9C7
:103B70000002CDF810B069465448FEF7C9FB504F1B
:103B80005348C03738604FF00060C7E90105C7E906
:103B900003567D61C7E906593D6238467D62FEF7EE
:103BA000E1FA08B1FDF7CFFB67630022052125206C
:103BB000BC63FEF715FD2520B4E7DFF81881C44586
:103BC00021D13B6843F400333B603B6803F400338E
:103BD0000593036843F0080303600068CDE90251D0
:103BE00000F0080005906020CDE90002CDF810B08B
:103BF00069463948FEF78CFB002205212620FEF796
:103C0000EFFC26208EE7354FBC458DD1DAF800C099
:103C10004CF0200CCAF800C0DAF8007007F020075A
:103C20000597076847F040070760006800F040000C
:103C30000590CDE903134FF484408DE825006946D3
:103C40002748FEF765FB2248264F18384FF02068BA
:103C50003860C7E90185C7E903567D61C7E90659A0
:103C60003D6238467D62FEF77DFA08B1FDF76BFBD9
:103C70006763BC631B4F164860376030E7E8020893
:103C8000402061C7174847F814596030BD61FD6195
:103C90003D627D62FEF766FA08B1FDF754FB2763CB
:103CA000002205214720BC63FEF79AFC472039E734
:103CB0000078004040380240001002405860024046
:103CC00018090020007C0040001001400004024060
:103CD0004064024000440040000C024000140140D7
:103CE00000180240380A0020F8B5044690F83A005F
:103CF00020283CD1C1B3BAB394F83800012836D09B
:103D0000012084F83800A162A2850025E563222005
:103D100084F83A00636B1748D863636B16481864DD
:103D2000636B1648D864606B134605650846666B7E
:103D3000216802463046091DFEF7A1FA2068016895
:103D40004168009184F83850C16841F48071C160C5
:103D50002068416941F0010141612068416941F0F9
:103D6000400141610020F8BDFFE70120FBE7022090
:103D7000F9E700006B7B0008A77B0008217B0008A7
:103D800090F83A30202B22D1F9B1F2B190F83830C6
:103D9000012B1CD081628285C2850021C163222251
:103DA00080F83A2080F838100168CA6842F48072BE
:103DB000CA6001684A6942F001024A610068C1684C
:103DC00041F02001C16000207047012070470220AF
:103DD0007047000010B504460748844201D104F042
:103DE000E9F80648844201D107F0C4F82046BDE84E
:103DF0001040FFF716BD0000D8080020D8070020AB
:103E000070472DE9F843044690F839001F461646DE
:103E10000D46202850D1B5B1AEB194F83800012834
:103E20004AD0012084F838004FF00008C4F83C80E4
:103E3000212084F83900FEF761FBA6848146E684E0
:103E400084F8388026E00120BDE8F883E08C401E2D
:103E5000E084A0684B46B0F5805F4FF000024FF061
:103E600080012046009703D003F0F5FFE8B90DE08C
:103E700003F0F1FFC8B928882168C0F30800486042
:103E8000206908B16D1C05E0AD1C03E0216815F840
:103E9000010B4860E08C0028D8D14B46002240211D
:103EA0002046009703F0D7FF08B10320CCE720207D
:103EB00084F839000020C7E70220C5E770B5044642
:103EC00090F83900202830D169B362B394F83800F3
:103ED00001282AD0012084F838002162A284E284DB
:103EE0000025E563212084F83900236B1048D8634E
:103EF000236B10481864236B0F48D864206B13465B
:103F000005652668206B321DFEF7B9F921686FF050
:103F10004000086084F838502068416941F0800111
:103F20004161002070BD012070BD022070BD000005
:103F3000B17B0008DF7B0008217B000870477047D9
:103F4000FEE710B507F06EF906F038FB06F074FDD9
:103F5000BDE810400020FEF7C9B9000010B54FF4CD
:103F6000167240F2A731012002F0A4FB0122084999
:103F70000848FFF7B9FE08B1FDF7E5F90122044949
:103F80000448FFF79BFFBDE810400120FEF7AEB9E3
:103F900031010020D80700207FB500266F48029627
:103FA00003960096019690F82300354600B101264D
:103FB0006B4C02A9B4F80100C0F3081006F0B4FF7E
:103FC000002E40D002F0ECFE642007F0E3FA01205E
:103FD00002F0FCFB642007F0DDFA012002F0D0FDC6
:103FE000642007F0D7FA5FA1012002F05FFA642095
:103FF00007F0D0FA5DA1012002F0DCFA642007F09E
:10400000C9FA5CA1012002F019F8642007F0C2FA95
:104010005BA1012002F098F8642007F0BBFA5AA1D6
:10402000012002F0BDF9642007F0B4FA02A90120D2
:1040300002F010F9642007F0ADFA012002F082FFCF
:10404000642007F0A7FA02A9022002F003F9642015
:1040500007F0A0FA022002F075FF642007F09AFA38
:104060003F4E60680D36716888421DD0694606F083
:104070005BFF606800280DDA4042694606F054FF95
:104080009DF800008DF801002D208DF800008DF8BE
:10409000025002E0694606F047FF6946022001F03F
:1040A000CDFF642007F076FAE078F178884210D0EE
:1040B00020B1012804D002280BD103E034A102E092
:1040C00035A100E036A1022002F06AF9642007F071
:1040D00061FA60787178C0F34200C1F3420188420E
:1040E0000CD010B1012809D101E030A100E032A1CB
:1040F000022002F0DBF9642007F04CFA20883188B6
:10410000C0F38210C1F3821188420CD010B1012893
:1041100009D101E02BA100E02DA1022002F04AFA12
:10412000642007F037FAA078B2784109B1EB521F4A
:104130000CD0400903D0012808D128A100E02AA111
:10414000022002F001F8642007F024FA04490D224D
:1041500001F10D00FCF7D7F87FBD0000B41000207E
:10416000501F00207261746174650000666F6C6C92
:104170006F770000696E637265617365000000000F
:10418000636F7665720000007370656564000000FF
:10419000533A6C6967687400533A726967687400CF
:1041A000533A646F75626C6500000000726174615F
:1041B00074653A6F66660000726F746174653A6F79
:1041C0006E000000666F6C6C6F773A6F6666000079
:1041D000666F6C6C6F773A6F6E000000636F766588
:1041E000723A6F70656E0000636F7665723A636C49
:1041F0006F736564000000009FED0A1A80ED001ADD
:1042000080ED051A80ED090AC0ED0A0AB7EE000A32
:1042100080ED070A80ED081A80ED0B0A80ED011A87
:104220007047000000000000D0ED071AD0ED000A32
:1042300021EEA01A80ED011AD0ED090A90ED052AB1
:1042400041EE820AC0ED030AD0ED0A1A30EEA12A2F
:10425000C0EE821A30EE412AB0EE410AB7EE001AE3
:10426000C0ED061A31EE611A01EE820A61EE200AF3
:1042700080ED020AC0ED040AC0ED050A80ED000AD7
:1042800070470000012251030148FEF732B90000D7
:10429000001802404FF480410148FEF723B90000A6
:1042A000001402404FF400610148FEF71BB9000002
:1042B000001002402DE9F04793484FF000082DED23
:1042C000068B417841F2CC00DFED908A9FED909A09
:1042D000DFF840A2DFED909A9FED908A4FF48019AD
:1042E0009FED8FAADFED8FAA8F4E904D904F914C8E
:1042F00001291CD0022962D003297CD0FCF79AFF47
:104300004FF4E1603080208D00EBC00101EB001024
:10431000218901EB400080B2E0816189884200D3AD
:10432000E1819FED851A6868B84265DCB4E0FCF76E
:1043300081FF40F2DC503080208D00EBC00101EBAA
:104340000010218901EB400080B2E0816189884240
:1043500000D3E1816868B84217DD217939B1E0897D
:10436000B0EE681A00EE100AF8EE401AB0E05045C0
:10437000E089B0EE681A00EE100AF8EE401A4CDA46
:10438000B8E000BFF0EE400A95E0A0F18340484558
:104390000DD884F80480E089F0EE4A0A00EE100A95
:1043A000F8EE401AB0EE680AB0EE401A83E0E089F9
:1043B000B0EE681A00EE100AF8EE401A48E041F23A
:1043C0005C20FCF737FF4FF4FA603080208D00EB63
:1043D000C00101EB0010218901EB400080B2E081B7
:1043E0006189884200D3E1816868B8421BDD217988
:1043F00051B1E08901E030E063E000EE100AB0EE78
:10440000481AF8EE401A63E05045E08900EE100AC1
:10441000F8EE401A02DBB0EE481A63E0B0EE480A4C
:10442000B0EE401AAEE7A0F18340484509D884F8C1
:104430000480E089B0EE481A00EE100AF8EE401A47
:1044400035E0E089B0EE481A00EE100AF8EE401AA6
:10445000F0EE4A0AB0EE6A0A2DE04FF4FA50FCF78B
:10446000E9FE40F6FC003080208D00EBC00101EB3E
:104470000010218901EB400080B2E081618988420F
:1044800000D3E18168689FED2D1AB84204DD2179DF
:10449000C9B9504521DA28E0A0F1834048452CD81D
:1044A00084F80480E08900EE100AF8EE401AF0EE7D
:1044B0004A0AB0EE680ABDEC068BBDE8F04701F091
:1044C000FDB9217939B1E08900EE100AF8EE401A01
:1044D000B0EE490A56E7B84207DBE08900EE100A61
:1044E000F8EE401AB0EE690A4CE7E08900EE100AD7
:1044F000F8EE401AB0EE480A44E7E08900EE100AF0
:10450000F8EE401AA4E70000771F00200080BB44AB
:1045100000C05A450000A44100401C450000FA4478
:104520000000FA4300002F44000000201C0C002073
:1045300000009041D80000200000E14400C00F4579
:104540001949488DB1F92C20821A184842614B8DC7
:104550008B85C37813B10022C2700EE041F288331C
:104560009A4203DDA2F5F852FF3A426141F28833E4
:10457000DA4203DA41F6FF731A44426100EE102A70
:10458000D1ED0C0A9FED0A1AB8EEC00A30EE800A8F
:1045900081ED0C0AC0EE010AB2EE040A20EE800A98
:1045A00080ED060A70470000200B0020D800002094
:1045B00000F8FF452DE9F047F0EE405A2DED088B4D
:1045C000F0EE619AF0EE418AB0EE608A04469FED0B
:1045D000ED6AED4ED6ED040A00F0D2FEB6F9020007
:1045E00094ED0F9A00EE100AB8EEC00A30EE650A9C
:1045F0009FEDE61AE64FE749C0EE010AB0EE000A69
:10460000D7ED00AA097820EE800A10EE2A8A09B9AF
:10461000B0EE469AE049E24CDFF880930A7804F164
:10462000740804F1E805DF49B5EE00AA04F5AE749C
:10463000002A7DD00120087018EE900AFCF76EF871
:10464000B0EE480A41EC1B0B0AEE8A0A10EE100A83
:10465000FCF764F841EC100B04F02AFB53EC1B2B25
:1046600051EC100BFBF723FF41EC1B0B19EE900AEA
:10467000FCF754F853EC1B2BFBF772FEFCF792F897
:1046800000EE100AB9F90C004E4600EE900AC4483C
:10469000F8EEE00A00F074FEBDEEC00A10EE100A5B
:1046A000308018EE900AFCF739F8D7ED000AB0EE2A
:1046B000480A41EC1B0B00EE8A0A10EE100AFCF7C8
:1046C0002DF841EC100B05F08BF953EC1B2B51EC42
:1046D000100BFBF7ECFE41EC1B0B19EE900AFCF7FC
:1046E0001DF853EC1B2BFBF7DCFEFCF75BF800EE30
:1046F000100AB6F9240000EE900A4046F8EEE00AEF
:1047000000F03EFEBDEEC00A10EE100A308318EE37
:10471000900AFCF703F8D7ED000AB0EE480A41EC26
:104720001B0B00EE8A0A10EE100AFBF7F7FF00E001
:1047300042E041EC100B05F053F953EC1B2B51EC0C
:10474000100BFBF7B4FE41EC1B0B19EE900AFBF7C4
:10475000E5FF53EC1B2BFBF703FEFCF723F800EE01
:10476000100AB6F93C0000EE900A2846F8EEE00A7E
:1047700000F006FEBDEEC00A10EE100A308618EEFC
:10478000900AFBF7CBFF97ED000A41EC1B0B00EE04
:104790000A8A18EE100AFBF7C1FF41EC100B04F077
:1047A00087FA53EC1B2B51EC100BFBF780FE41EC0E
:1047B000180B19EE900AC7E00A78012A07D100EE1B
:1047C000100A00220A70B8EEC00A86ED040A18EE3C
:1047D000900AFBF7A3FFB0EE480A41EC1B0B0AEE70
:1047E0008A0A10EE100AFBF799FF41EC100B04F057
:1047F0005FFA53EC1B2B51EC100BFBF758FE41EC0E
:104800001B0B19EE100AFBF789FF53EC1B2BFBF770
:10481000A7FDFBF7C7FF00EE100AB9F90C004E46E2
:1048200000EE900A5E48F8EEE00A00F0A9FDBDEE49
:10483000C00A10EE100A308018EE900AFBF76EFFE7
:10484000D7ED000AB0EE480A41EC1B0B00EE8A0AD5
:1048500010EE100AFBF762FF41EC100B05F0C0F8F8
:1048600053EC1B2B51EC100BFBF721FE41EC1B0B07
:1048700019EE100AFBF752FF53EC1B2BFBF711FE4E
:10488000FBF790FF00EE100AB6F9240000EE900A44
:104890004046F8EEE00A00F073FDBDEEC00A10EEEF
:1048A000100A308318EE900AFBF738FFD7ED000AA4
:1048B000B0EE480A41EC1B0B00EE8A0A10EE100A1B
:1048C000FBF72CFF41EC100B05F08AF853EC1B2B87
:1048D00051EC100BFBF7EBFD41EC1B0B19EE100A32
:1048E000FBF71CFF53EC1B2BFBF73AFDFBF75AFFC2
:1048F00000EE100AB6F93C0000EE900A2846F8EEE9
:10490000E00A00F03DFDBDEEC00A10EE100A308650
:1049100018EE900AFBF702FF97ED000A41EC1B0B23
:1049200000EE0A8A18EE100AFBF7F8FE41EC100BB5
:1049300004F0BEF953EC1B2B51EC100BFBF7B7FD49
:1049400041EC180B19EE100AFBF7E8FE53EC182B9C
:10495000FBF7A7FDFBF726FF00EE100AB6F954009F
:1049600000EE900A2046F8EEE00A00F009FDBDEEE8
:10497000C00A10EE100AA6F84800BDEC088BBDE88E
:10498000F087000000000000F80A002000F8FF4552
:10499000B000002029010020DD0000205C0B002079
:1049A000EC140020280100207FB500241548009455
:1049B000019402941249039401604FF48031C0E9DC
:1049C00001140461047680F820400F49C0E90A14FC
:1049D0000125C561C46080F830404561FCF78CFD5D
:1049E00008B1FCF7B0FC0620CDE900056946029449
:1049F0000448FCF7CFFC002801D0FCF7A4FC7FBDE5
:104A000000200140900400200100000F104810B564
:104A10000E4901600321416000214FF400228160B2
:104A2000C0E903124FF4401242610176012242763E
:104A30008176C17601774177FDF73DF8002803D0F4
:104A4000BDE81040FCF77FBC10BD000000640040D2
:104A5000D80400200F4810B50D49016003214160C2
:104A600000214FF400228160C0E903124FF440128C
:104A70004261017641768176C17601774177FDF713
:104A80001AF8002803D0BDE81040FCF75CBC10BD4C
:104A900000680040000500201D4808B5016841F489
:104AA00080010160016801F480010091016841F416
:104AB000001101600068002200F400100090052140
:104AC0000C20FDF78DFD0C20FDF77CFD002205215B
:104AD0000E20FDF785FD0E20FDF774FD0022052157
:104AE0003920FDF77DFD3920FDF76CFD0022052101
:104AF0003A20FDF775FD3A20FDF764FD00220521FF
:104B00004520FDF76DFDBDE808404520FDF75ABD85
:104B10003038024010B596B01C2211496846FBF7A8
:104B2000F2FB0021684606F041FD0E4C0C491C22A8
:104B300060611C3107A8FBF7E6FB002107A806F01F
:104B400035FD0749A0611C2238310EA8FBF7DBFBBD
:104B500000210EA806F02AFDE06116B010BD00008D
:104B6000B0C30008000000202DE9F04F87B01421E9
:104B70006846FBF7E1FB47480024016841F010015B
:104B80000160016801F010010591016841F0020126
:104B90000160016801F002010591016841F04001E6
:104BA0000160016801F040010591016841F00101D7
:104BB0000160016801F001010591016841F00801FF
:104BC0000160016801F008010591016841F0800170
:104BD0000160016801F080010591016841F0200148
:104BE00001600068DFF8B09000F020004FF400553D
:104BF0000590002229464846FDF77BFCDFF89CA083
:104C00004FF4C066002231465046FDF772FCDFF8D3
:104C100090B000223C215846FDF76BFC44F240075F
:104C2000002239461F48FDF764FC4FF4006800225B
:104C300041461D48FDF75DFC00950125CDE9015475
:104C4000694648460394FDF763FB0096CDE901549D
:104C5000694650460394FDF75BFB3C200090CDE98C
:104C60000154694658460394FDF752FB0097CDE97D
:104C7000015469460B480394FDF74AFBCDF80080C8
:104C8000CDE90154694608480394FDF741FB07B09C
:104C9000BDE8F08F303802400018024000040240A6
:104CA000001C02400014024000100240104810B5E1
:104CB0000E4901604FF48271416000218160C16042
:104CC0004FF400720161C0E905122822C0E90721F2
:104CD000416281620A21C162FDF74EFF002803D0C4
:104CE000BDE81040FCF72FBB10BD000000300140B4
:104CF000280500200F4810B50D4901604FF482715E
:104D0000416000218160C1604FF400720161C0E91F
:104D10000512C1610162416281620A21C162FDF72F
:104D20002BFF002803D0BDE81040FCF70CBB10BDE2
:104D300000500140800500200B4810B50949016072
:104D4000A7214160002140F2E732C0E9021201616F
:104D50008161FEF7DFF9002803D0BDE81040FCF7C1
:104D6000F2BA10BD004801405807002010B588B0C5
:104D70001C216846FBF7E0FA124811490024016043
:104D800040F24731C0E901142421C0E903148461D1
:104D9000FEF75BFC08B1FCF7D6FA60200090122009
:104DA000CDE901040022694606480494FEF7E5FBBC
:104DB00008B1FCF7C8FA0348FEF76EFB08B010BD57
:104DC000001800409807002010B592B000240F94FE
:104DD0001C2168461094FBF7AFFA202107A8FBF7C7
:104DE000ABFA2D482B490160A721C0E9011444F614
:104DF0002061C0E9031444618461FEF726FC08B118
:104E0000FCF7A1FA0F940FA923481094FEF73AF982
:104E100008B1FCF798FA602000904FF47A70CDE961
:104E20000104039404940594002269461A480694E8
:104E3000FEF7A3FB08B1FCF786FA04226946164880
:104E4000FEF79BFB08B1FCF77EFA08226946124880
:104E5000FEF793FB08B1FCF776FA0C2269460E4880
:104E6000FEF78BFB08B1FCF76EFA079408940994DF
:104E70004FF400500A94CDE90B4007A906480E9460
:104E8000FEF7D5F808B1FCF75EFA0348FEF704FB1D
:104E900012B010BD00000140D805002010B586B04A
:104EA00000241648009401940294039404944FF053
:104EB00080410594016042F2CF01C0E901146421F0
:104EC000C0E903148461FEF725F908B1FCF73BFA49
:104ED0004FF48050009069460848FEF7BDF908B1CC
:104EE000FCF731FA049404A904480594FEF7CAF8C3
:104EF000002801D0FCF727FA06B010BD18060020E4
:104F000010B58AB0002407941C2168460894FBF76A
:104F100013FA1648144901604721C0E9011440F210
:104F2000E731C0E903148461FEF78FFB08B1FCF799
:104F30000AFA079407A90D480894FEF7A3F808B1E8
:104F4000FCF701FA6020CDE90004029404226946CE
:104F500006480494FEF711FB08B1FCF7F4F9034886
:104F6000FEF79AFA0AB010BD00040040580600206F
:104F700010B586B00024174800940194029403945D
:104F800004941349059401604FF47A71C0E9011447
:104F90004FF6FF71C0E903148461FEF7BBF808B156
:104FA000FCF7D1F94FF48050009069460948FEF7AC
:104FB00053F908B1FCF7C7F9049404A9054805940E
:104FC000FEF760F8002801D0FCF7BDF906B010BD6F
:104FD000000800409806002010B58EB00024079409
:104FE000089409940A940B941C2168460C94FBF7CE
:104FF000A3F92348214901604721C0E9011444F67F
:105000001F61C0E903148461FEF784F808B1FCF75E
:105010009AF94FF48050079007A91948FEF71CF938
:1050200008B1FCF790F91648FEF70FFB08B1FCF742
:105030008AF90B940BA912480C94FEF723F808B1D7
:10504000FCF781F9602000904FF47A70CDE90104FB
:10505000002269460A480494FEF78FFA08B1FCF76B
:1050600072F9042269460648FEF787FA08B1FCF790
:105070006AF90348FEF710FA0EB010BD000C0040AC
:10508000D80600201CB500240F4800940D49019457
:10509000016041F61F41C0E9011442F20F718461C1
:1050A000C160FEF737F808B1FCF74DF90094694686
:1050B00005480194FDF7E6FF002801D0FCF743F90D
:1050C0001CBD000000100040180700200C4810B55F
:1050D0000A4901604FF4E1314160002181600C22F6
:1050E000C160C0E904128161C161FEF74FFC002874
:1050F00003D0BDE81040FCF726B910BD0078004091
:10510000D80700200C4810B50A4901604FF4165129
:105110004160002181600C22C160C0E904128161FC
:10512000C161FEF733FC002803D0BDE81040FCF756
:105130000AB910BD007C0040180800200D4810B5C9
:105140000B4901600C49416000214FF4806281608D
:10515000C0E903120C22C0E90521C161FEF716FC6B
:10516000002803D0BDE81040FCF7EDB810BD0000EA
:105170000010014058080020A08601000C4810B51E
:105180000A4901604FF4E1314160002181600C2245
:10519000C160C0E904128161C161FEF7F7FB00281C
:1051A00003D0BDE81040FCF7CEB810BD004400406D
:1051B000980800200C4810B50A4901604FF4E1310D
:1051C0004160002181600C22C160C0E9041281614C
:1051D000C161FEF7DBFB002803D0BDE81040FCF7FF
:1051E000B2B810BD00140140D8080020FEE7704797
:1051F000F0B500210D4BFF260C46002201280FD0F0
:1052000003EBC20580B16F5CC7F1FF076F54521CFE
:10521000D2B2802AF2D3491CC9B20829EDD3F0BD1D
:1052200003EBC2056E54F2E76C54F0E7A20C0020C9
:1052300070B5474D4FF48064002221462846FDF7A3
:1052400058F94FF4FA70FDF751F80122214628462B
:10525000FDF74FF90021AE2000F07CF80021084650
:1052600000F078F80021102000F074F800214020B0
:1052700000F070F80021812000F06CF80021CF20B0
:1052800000F068F80021A12000F064F80021C82097
:1052900000F060F80021A62000F05CF80021A820B2
:1052A00000F058F800213F2000F054F80021D320EE
:1052B00000F050F80021084600F04CF80021D520FD
:1052C00000F048F80021802000F044F80021D920A7
:1052D00000F040F80021F12000F03CF80021DA2035
:1052E00000F038F80021122000F034F80021DB2013
:1052F00000F030F80021402000F02CF800212020A0
:1053000000F028F80021022000F024F800218D2070
:1053100000F020F80021142000F01CF80021A42047
:1053200000F018F80021A62000F014F80021AF20AA
:1053300000F010F80021AF2000F00CF80020FFF77B
:1053400057FFBDE870400021084606F00FB9000085
:105350000004024013B508484FF4007309B101225C
:1053600000E000221946FDF7C4F80A23012269462D
:105370000248FDF7A7FC1CBD0004024028050020E0
:105380002DE9F043F0EE401AC0ED080A31EEE01AC4
:10539000C0ED051A31EEE00A80ED0B1AD0ED182AA7
:1053A0000146B1EE402A9FEDFE0AF5EEC02AF1EE6D
:1053B00010FA0ED0B5EEC01AF1EE10FA02DDB0EE22
:1053C000413A01E0B0EE423AB4EEE23AF1EE10FAC0
:1053D0007DDCD1ED192AF5EEC02AF1EE10FA0BD0E2
:1053E000B5EEC01AF1EE10FA01DDB0EE412AB4EECE
:1053F000E22AF1EE10FA6AD38A6E01F13400B0EEBF
:10540000002A032A02D0042A7ED001E2D1ED002A2C
:10541000E74BE44E62EE814AE34DE44AC1ED0C4AAB
:10542000D1ED0D2A91ED013A4FF40009F6EE003A64
:1054300043EE012AB7EE0C3A5C42B6EE084AC1EDE3
:105440000D2AD1ED0A2A31EE621AD1ED022A21EE9F
:10545000225AF7EE082A81ED0E5A9FEDD61A71EE08
:10546000E00AB142F0EEE00A55D110EE906A9642A1
:1054700009DD64EE811AC1ED0C1A65EE031A81EDA7
:105480000D0AC1ED0E1AF0EE601A11EE906A2E446C
:10549000B6F56C0F0FD2D1ED0C1ADFEDC74A61EEF5
:1054A000A41AC1ED0C1A81ED0D0AD1ED0E1A61EEB0
:1054B000A31AC1ED0E1AF0EE601A11EE906A1E44A6
:1054C0004E450DD8D1ED0D1A61EEA31A00E0BCE1F6
:1054D000C1ED0D1AD1ED0E1A61EEA21AC1ED0E1A30
:1054E000F0EE601AF5EEC01AF1EE10FA13DBF0EEF2
:1054F000601A11EE906AA6420DDCD1ED0C1A61EE35
:10550000841AC1ED0C1A00E024E1D1ED0E1A61EE0F
:10551000821AC1ED0E1AA34FA84E74374FF41C0C1B
:105520004FF45008DFEDA64AF1EE041AB94252D109
:1055300010EE907A97420DDD91ED0C5A25EE015A4E
:1055400081ED0C5A81ED0D0A91ED0E5A25EE035AAC
:1055500081ED0E5AB0EE605A15EE107A3744674569
:1055600001D281ED0D0AB0EE605A15EE107A1F449B
:10557000474511D891ED0C5A25EE245A81ED0C5A6D
:1055800091ED0D5A25EE025A81ED0D5A91ED0E5A0C
:1055900025EE025A81ED0E5AB0EE605AB5EEC05AB1
:1055A000F1EE10FA17DBB0EE605A15EE107AA74252
:1055B00011DC91ED0C5A25EE045A81ED0C5A91ED57
:1055C0000D5A25EE025A81ED0D5A91ED0E5A25EE37
:1055D000215A81ED0E5A734FE837B94254D110EE7B
:1055E000907A97420DDD91ED0C5A25EE015A81ED2E
:1055F0000C5A81ED0D0A91ED0E5A25EE033A81ED1C
:105600000E3AB0EE603A13EE102A3244624501D2EF
:1056100081ED0D0AB0EE603A13EE102A1A444245AD
:1056200013D891ED0C3A23EE243AF0EE084A81EDBE
:105630000C3A91ED0D3A23EE243A81ED0D3A91EDBD
:105640000E3A23EE022A81ED0E2AB0EE602AB5EE64
:10565000C02AF1EE10FA17DBB0EE602A12EE102A23
:10566000A24211DC91ED0C2A22EE042A81ED0C2AD3
:1056700091ED0D2A22EE212A81ED0D2A91ED0E2ABF
:1056800062EE211AC1ED0E1A4E4A914243D110EE3C
:10569000902A4D4B9A4207DDD1ED0C1A21EE811A6A
:1056A00081ED0C1A81ED0D0A10EE902A474B1A4439
:1056B000B2F5D80F01D281ED0D0A10EE902A2A44DE
:1056C0004A4509D291ED0C1ADFED411A21EE211A5B
:1056D00081ED0C1A81ED0D0AF5EEC00AF1EE10FA1B
:1056E00019DB10EE902A304BDB439A4213DC91ED2C
:1056F0000C0ADFED380A20EE230A81ED0C0A91ED49
:105700000D0A20EE220A81ED0D0A91ED0E0A20EE1F
:10571000200A81ED0E0A91ED1C0AB8EE400A04F051
:105720005DFE91ED0C0AD1ED0D0A01F13C0030EE69
:10573000200AD1ED0E0A30EE200A81ED0F0A91ED1C
:105740001B0AB8EEC00A04F049FE91ED0F0A81ED84
:10575000100A5DE091ED0A0AD1ED001A71EE400ADF
:1057600060EEA10AC1ED0C0AD1ED010A60EE810ADA
:1057700000EE421AC1ED0D0A91ED090AD1ED020ABF
:1057800031EE000A20EE200A81ED0E0A91ED1C0A8E
:10579000B8EE400A04F022FE91ED0C0A1CE0000075
:1057A000000000004C110020FFFFDFBE00000C4293
:1057B000000060BFCDCCAC3F9A99993FFFFF8FBEF0
:1057C0009A99593F781400200000B442FFFF5FBE51
:1057D000CDCC4C3FCDCCCC3DD1ED0D0A01F15C00E0
:1057E00030EE200AD1ED0E0A30EE200A81ED150AC6
:1057F000D1ED160A30EE800A81ED170A91ED1B0AF1
:10580000B8EEC00A04F0EAFD91ED170A81ED160A20
:1058100091ED0A0A81ED090A91ED0B0A81ED0A0A60
:1058200091ED070A81ED060A91ED080A81ED070A5C
:1058300091ED040A81ED030A91ED050A81ED040A58
:10584000886E032803D091ED170ABDE8F08391ED2F
:105850000F0AFAE700F1680CDFED031A8CE80E007E
:1058600080EC040A704700000000000010B504211D
:105870000448FDF741FF03494FF47A7009688863D3
:1058800010BD00005806002010B50B4C0122042169
:105890002046FCF72EFE002208212046FCF729FEB8
:1058A000002210212046FCF724FE20460122BDE8FC
:1058B00010402021FCF71DBE001C02402DE9F05FC6
:1058C000FD4EDFF8F8B3DFF8F8832DED0E8BF0EE28
:1058D00061AAF0EE41BAB0EE60CAB0EE40BAF27A18
:1058E000DFEDF88A9FEDF88AF84F9FEDF99B9FED69
:1058F000FADBDFF8EC93FB490025FB4C486C012AEE
:1059000049D0FAF70BFF94ED0E1B53EC112BFAF76D
:10591000C8FD41EC100B53EC192B84ED100BFAF77A
:1059200011FF14D894ED100B53EC1D2B51EC100B00
:10593000FAF720FF0BD894ED100B53EC102B94EDDD
:10594000120B51EC100BFAF7ACFDC4E91201B6F9D9
:105950000200B24600EE100AB0EE002AF8EE001A7D
:10596000B8EEC00A9FEDE1EAB0EE4E1ADFEDE0CAF4
:10597000F0EE6C0A05F010FCD9ED000ADD494E4648
:1059800030EE200A10EE100A89ED000A88427DDB15
:105990009FEDD90A94E0A7F86050A7F87850A7F8CF
:1059A0009050A7F8A850ABF80050ABF81450A8F8E6
:1059B0000050D24AA8F81450A8F828501060BBF93B
:1059C000160000EE100AB8EEC00AC0EE280A20EE5B
:1059D000880A89ED000ABBF9020000EE100AB8EE51
:1059E000C00A8BED040AB6F9060000EE100AB6F9FB
:1059F0000400F8EEC00A00EE100AB8EEC00A06F085
:105A000081FA00249FEDBEABDFF8FC829FEDBF9AC8
:105A1000DFEDBF9A9FEDBFBADFEDBFBADFF8FC92B2
:105A2000B6F90000FAF724FE53EC1A2BFAF73FFD03
:105A300041EC180B454658F82400FAF719FE53ECD0
:105A4000182BFAF78DFCFAF7ADFE00EE100AB0EE57
:105A5000492AF0EE691AB0EE4B1AF0EE6B0A05F027
:105A60009BFBBDEEC00A10EE100A45F8240004EBC3
:105A7000440507EBC501B1F90C1000EE101AF8EE61
:105A8000C00A00EE100AB8EEC00A00E011E004EB14
:105A90004400C0EB441109EB8100FFF771FCBDEE3F
:105AA000C00A641C042C10EE100A27F83500B7DB7E
:105AB000B2E210EE100A9A49884203DC9FED990A7F
:105AC00086ED000ABAF90000B0EE002A00EE100AD6
:105AD000F8EE001AB0EE4E1AB8EEC00AF0EE6C0AFC
