:020000040800F2
:10000000F064002081020008CF4A0008694000081F
:10001000CD4A000831100008A17A00080000000055
:10002000000000000000000000000000C101000806
:1000300051130008000000001D020008197100089B
:100040009B0200089B0200089B0200089B0200081C
:100050009B0200089B0200089B0200089B0200080C
:100060009B0200089B0200089B0200089B020008FC
:10007000711200089B0200087D1200089B02000814
:100080009B0200089B0200089B0200084110000828
:10009000351000089B0200089B0200089B02000824
:1000A0009B0200089B0200080D7200089B020008DA
:1000B0009B0200089B0200089B0200089B020008AC
:1000C0009B0200089B0200089B0200089B0200089C
:1000D0009B020008517A0008697A00089B02000818
:1000E0009B0200089B0200089B0200089B0200087C
:1000F0009B0200089B0200089B0200089B0200086C
:100100009B0200089B0200089B0200089B0200085B
:100110009B0200089B020008297200089B0200084D
:100120009B02000889120008951200089B02000833
:100130009B0200089B0200089B0200089B0200082B
:100140004D1000089B0200089B0200089B0200085B
:100150009B020008A11200089B020008957A000883
:100160009B0200089B0200089B0200089B020008FB
:100170009B0200089B0200089B0200080000000090
:100180009B0200089B02000809750008157500080D
:100190009B0200089B0200089B0200089B020008CB
:1001A00000000000000000009B020008DFF80CD0F7
:1001B00000F042FC0048004723AC0008F064002037
:1001C0002C4B19680868B0E8F04F80F30988BFF33A
:1001D0006F8F4FF0000080F311887047000000001F
:1001E00008480068006880F308884FF0000080F33A
:1001F000148862B661B6BFF34F8FBFF36F8F00DF15
:1002000000BF00BF08ED00E0DFF80C00016841F41A
:1002100070010160704700BF88ED00E0EFF30980D6
:10022000BFF36F8F134B1A681EF0100F08BF20ED3D
:10023000108A20E9F04F106009B44FF0500080F3AD
:100240001188BFF34F8FBFF36F8F0BF0DDFB4FF0C3
:10025000000080F3118809BC19680868B0E8F04F05
:100260001EF0100F08BFB0EC108A80F30988BFF3AE
:100270006F8F704744010020EFF305807047000046
:100280000648804706480047FEE7FEE7FEE7FEE730
:10029000FEE7FEE7FEE7FEE7FEE7FEE7B9710008CE
:1002A000AD0100082DE9F05F0546002092469B460F
:1002B00088460646814640241BE02846414647467C
:1002C000224600F09AFA53465A46C01A914110D37A
:1002D00011461846224600F081FA2D1A67EB0108F4
:1002E0004F4622460120002100F078FA17EB000962
:1002F0004E41201EA4F10104DFDC484631462A4667
:100300004346BDE8F09F40EA01039B0703D009E0A4
:1003100008C9121F08C0042AFAD203E011F8013BF1
:1003200000F8013B521EF9D27047D2B201E000F84A
:10033000012B491EFBD270470022F6E710B5134689
:100340000A4604461946FFF7F0FF204610BD034653
:1003500011F8012B00F8012B002AF9D1184670473B
:100360002DE9FE4F804681EA0300C00F0C46009045
:1003700021F0004123F00045B8EB0200A94105D26D
:100380004046214690461C460B46024623F000405C
:10039000104347D0270DC7F30A00C3F30A51029058
:1003A000401A019040286BDAC3F3130040F4801B1D
:1003B0000098924620B10023D2EB030A63EB0B0BAB
:1003C00001985946C0F14002504600F007FA06462F
:1003D0000D4650465946019A00F01FFA10EB0800EE
:1003E0006141002487EA115284EAE7731A4340D03E
:1003F000009A62B3019A012A4FEA075215DC001BEA
:1004000061EB02014FF0004202EA0752CDE90042DF
:10041000001C41F5801132462B4600F056FA03B01D
:10042000BDE8F08F40462146F9E7001B61EB020171
:10043000001C41F5801300185B412018A2F500173D
:1004400047EB030140EAD570B6196D4111E06D0824
:100450004FEA360645EAC0754FEA0752001B61EBCA
:100460000201001C41F5801149084FEA30000019D3
:10047000514132462B4603B0BDE8F04F00F016BAAA
:100480000098012240000023D0EB020263EBE073EE
:10049000009821464FEAE074B8EB000061EB0401DC
:1004A000E9E783F000435BE781F0004158E72DE97D
:1004B000FE4F81EA030404F0004421F0004100945F
:1004C0004FF0000B23F0004350EA01045ED052EAE3
:1004D00003045BD0C3F30A54C1F30A552C44A4F2BD
:1004E000F3340194A0FB0254C1F3130141F48011D1
:1004F000C3F3130343F4801301FB024400FB034ED8
:10050000840A970A44EA815447EA8357A4FB0768A0
:1005100002958D0A05FB07854FEA932C04FB0C54CA
:100520002705029D4FEA065847EA1637B5EB08053E
:100530006EEB070C870E920E47EA811742EA831290
:10054000A7FB0201B6EB0B0164EB00042B0D43EAA1
:100550000C335E1844EB1C50DA465146E7FB0201AF
:10056000C5F313044FEA0B3343EA14534FEA043242
:10057000019C43EA0603A4F10C040294009CCDE91B
:1005800000B400F0A2F903B0BDE8F08F00200146EE
:10059000F9E72DE9F04D81EA030404F0004B21F066
:1005A000004514464FF0000A23F0004150EA0502CE
:1005B00020D054EA01021DD0C5F30A570246C5F304
:1005C0001303C1F31300C1F30A5640F4801543F43A
:1005D0008013A7EB0608101BD64608F2FD3873EB14
:1005E000050002D308F1010801E092185B41B8F15F
:1005F000000F03DA00200146BDE8F08D00204FF423
:100600008011064684460EE0171B73EB050705D3E1
:10061000121B63EB050306434CEA010C49084FEA41
:10062000300092185B4150EA0107EDD152EA030015
:1006300012D082EA040083EA0501084305D0101BAA
:10064000AB4106D20122002306E000224FF0004316
:1006500002E06FF0010253101AEB06004CEB085158
:1006600010EB0A0041EB0B01BDE8F04D00F01EB9A4
:100670000EB5C10F80EAE0700844CA07002140F2BD
:1006800033438DE80E000A460B4600F01EF903B016
:1006900000BD0EB540F2334102910021CDE90011B9
:1006A0000A460B4600F011F903B000BD70B5C1F366
:1006B0000A5201F000450024C1F3130140F2FF3358
:1006C00041F480119A4201DA002070BD40F23343B8
:1006D0009A42A2F2334203DC524200F08EF800E06C
:1006E00090402C43F1D0404270BDC1F30A5210B586
:1006F000C1F3130140F2FF3341F480119A4201DA51
:10070000002010BD40F233439A42A2F2334203DC90
:10071000524200F072F810BD904010BD00F000424F
:1007200030F000400AD0C10D01F56071C0F3160031
:1007300042EA0151C20840071143704700200146B8
:100740007047000030B5041E71F1000404DB4FF067
:100750000044404264EB0101141E73F1000405DB08
:100760001C464FF00043524263EB04038B4208BF28
:10077000824230BD30B5041E71F1000404DB4FF03D
:100780000044404264EB0101141E73F1000405DBD8
:100790001C464FF00043524263EB0403994208BFEA
:1007A000904230BD01F0004330B421F0004150EAE6
:1007B000010206D00A0DA2F56072C1F31301002AEE
:1007C00002DC30BC00207047440F44EAC104C10081
:1007D000E01830BC00EBC25000F031B8202A04DB36
:1007E000203A00FA02F1002070479140C2F1200344
:1007F00020FA03F3194390407047202A04DB203A83
:1008000021FA02F00021704721FA02F3D040C2F130
:1008100020029140084319467047202A06DBCB1777
:10082000203A41FA02F043EAE07306E041FA02F3AB
:10083000D040C2F120029140084319467047002978
:10084000A8BF7047401C490008BF20F00100704756
:1008500010B4B0FA80FC00FA0CF050EA010404BFB6
:1008600010BC704749B1CCF1200421FA04F411FA0C
:100870000CF118BF012121430843A3EB0C01CB1D50
:100880004FEA00614FEA102042BF002010BC7047C1
:1008900000EBC35010440029A4BF10BC7047401C9B
:1008A000490008BF20F0010010BC704710B5141EAD
:1008B00073F1000408DA401C41F1000192185B4119
:1008C0001A4301D120F0010010BD2DE9F04D9246F0
:1008D0009B4611B1B1FA81F202E0B0FA80F2203207
:1008E0009046FFF77BFF04460F4640EA0A0041EAC4
:1008F0000B0153465A46084313D0114653EA0100F0
:1009000019D0C8F140025046FFF777FF05460E4662
:10091000504659464246FFF761FF084305D0012083
:1009200004E020463946BDE8F08D0020054346EA44
:10093000E0762C4337430A986305E40AA0EB0800ED
:100940000022FD0A44EA47540A3002D5002001463D
:10095000E9E7010510196941DDE908450019694118
:10096000BDE8F04DA2E770B521F0004303430CD081
:10097000C1F30A550024D5EB040564EB0403D61734
:10098000AD1AB34102DB0020014670BD201841EBD7
:10099000025170BD2DE9F04D00231A461B1A8A4101
:1009A00003DB00200146BDE8F08DC1F30A52C1F31C
:1009B000130141F480154FF0000BD10702D100184C
:1009C0006D41521E0027044640F2FF11384601EBEC
:1009D000620A3E468046024600204FF48011FFF72F
:1009E0000CFFC2197141BB1846EB0100B4EB030CBC
:1009F00075EB000C04D3E41A65EB000517460E46B0
:100A0000241908F101006D4180463428E3DDF9190D
:100A100046EB0600091BA84103D24FF0FF321346F4
:100A200001E0002213461BEB070046EB0A51BDE82C
:100A3000F04DFFF73BBF0000064C074D06E0E068B5
:100A400040F0010394E8070098471034AC42F6D315
:100A5000FFF7B0FB9CC50008BCC5000870B58C183A
:100A600010F8015B15F0070301D110F8013B2A11C2
:100A700006D110F8012B03E010F8016B01F8016BAF
:100A80005B1EF9D12B0705D40023521E0DD401F8AB
:100A9000013BFAE710F8013BCB1A921C03E013F874
:100AA000015B01F8015B521EF9D5A142D8D30020A9
:100AB00070BD0000464910B54A6822F440324A60D1
:100AC0004A6843681A434A6001684A6822F480729F
:100AD0004A6001684A68036942EA03224A60016881
:100AE0004A6822F040724A6001684A6883681A4383
:100AF0004A6001688A6822F400628A6001688A6834
:100B0000C3681A438A60816A6FF07062D1420168DB
:100B10008A6822F070628A6001688A680CD0836AF1
:100B20001A438A6001688A6822F040528A6001682C
:100B30008A68C36A1A4301E022F040528A60016861
:100B40008A6822F002028A6001688A68037E42EAAB
:100B500043028A6090F82010002901684A680FD08B
:100B600042F400624A6001684A6822F460424A60C6
:100B700001684A68174C436A04EB43331A4301E0A7
:100B800022F400624A600168CA6A22F47002CA62F2
:100B90000168CA6A838B104C04EB03531A43CA6280
:100BA00001688A6822F400728A6001688A6890F895
:100BB000303042EA43228A6001688A6822F4806207
:100BC0008A6001688A68406942EA8020886010BDB6
:100BD0000023014000E0FFFF0000F0FF30B50C46AD
:100BE00005000CD0022C0AD90548A11E028828460F
:100BF00000F0B0FB291901F8020D000A487030BD61
:100C00003601002030B50C4605000AD0022C08D968
:100C1000601E81B2FF22284600F0B2FB291901F8BC
:100C2000010C30BD10B59FED200B07F04DF851ECD5
:100C3000100BFFF7B7FD1E4C9FED1E1B9FED1F0B0A
:100C4000206107F071FE51EC100BFFF7ABFD00EED9
:100C5000100ADFED1C0A84ED050A20EE200AF1EEF1
:100C60000C0A80EE201A9FED180A84ED141A84ED08
:100C7000060A84ED070A84ED080A84ED090A84ED6A
:100C80000A0A84ED0B0A84ED0C0A84ED0D0A84ED4A
:100C90000E0A84ED0F0A84ED100A84ED110A84ED2A
:100CA000120A84ED130A10BD000000000000F0BF1E
:100CB000601B0020000000000000E03F000000007A
:100CC0000000004000000442000000002DE9F04157
:100CD00000242DED048B0AF027F809F033FD8D4830
:100CE00002F04AFB03F014FF012003F0F1FE04F0D0
:100CF000D1FA894800F0F0F9884800F0EDF99FED4D
:100D0000881ADFED888AF0EE680A9FED870A43F6BD
:100D100098252B461A460321844804F0A1FA9FED3A
:100D2000841A41F28832F0EE680AB3EE040A1346E0
:100D30000421804804F094FA9FED7F1AF0EE680ACF
:100D40009FED7E0A79482B461A460321743004F041
:100D500087FAB0EE681AF0EE680ADFED799A754806
:100D600042F21075B0EE690A40F6B8332A46042103
:100D7000743004F075FAB0EE681A9FED728A4FF481
:100D800080463346F0EE480AB0EE080A1A460421BF
:100D90006D4804F065FA40F2DC57B0EE681AF0EEE8
:100DA000680AB3EE040A33463A460321674804F062
:100DB00057FA65483346B0EE681AF0EE480AB0EECE
:100DC000080A1A460421743004F04AFA5F48B0EE6B
:100DD000681AF0EE680AB3EE040A33463A46032175
:100DE000743004F03DFA58483346B7EE001AF6EE78
:100DF000000AB1EE000A1A460421E83004F030FA85
:100E00005248B7EE001AF0EE680AB3EE040A334611
:100E10003A460321E83004F023FA9FED4D9A4D4EF7
:100E20006F0000BF04EB4400C0EB441006EB8000F1
:100E3000B0EE481AF0EE490AB7EE000A2B463A46E1
:100E4000042104F00DFA641CE4B2042CEAD3042457
:100E50009FED419A04EB4400C0EB441006EB800088
:100E6000B0EE491AF0EE480AB0EE080A2A462B46C0
:100E7000042104F0F5F9641CE4B2082CEAD3B6EEC0
:100E8000001AF0EE680AB0EE080A2B4640F6C412CB
:100E90000321324804F0E4F9DFED318A4FF47A742B
:100EA0002346B3EE041AF0EE680AB0EE690A1A4659
:100EB00003212C4804F0D4F92346B0EE481AF0EE92
:100EC000680AB0EE490A1A460321274804F0C8F917
:100ED00001222649264802F0E7FF0122234924483F
:100EE00002F0E2FF01222349234802F091FF03F0C0
:100EF000C9F804F0C1F909F099F803F0F1F80548D0
:100F000002F04BFABDEC048BC820BDE8F04100F0C4
:100F100077B800008C0600204C04002074040020E8
:100F200000803B45000000000000C8430C1000207A
:100F300000007A44A81800200080BB4400800944C7
:100F400000004842CDCCCC3D90190020C4120020B6
:100F5000CDCC4C3E20140020CDCC4C3DC017002001
:100F60000AD7A33BEC1A00203418002032000020DE
:100F7000CC070020B20000200C08002070B5202013
:100F800009F088FE0446194841F6FF71184D90EDAE
:100F9000040ABDEEC00A10EE100A90FBF1F068687A
:100FA000FFF7BCFBC4E9000195ED000AD5ED020A8C
:100FB00020EE200A10EE100AFFF7B0FBC4E9020190
:100FC0000C480088FFF765FBC4E904010A48008863
:100FD000FFF75FFBC4E9060120222146074806F01F
:100FE00061FD2046BDE8704009F050B82C0A002091
:100FF000500B0020080000200A0000204C070020B1
:1010000010B504460021064802F02CFC204601F0F1
:1010100083FABDE810400021014802F045BC000001
:10102000CC0600200021014802F03EBCCC06002086
:10103000FEE70000014800F04EBD00004C04002017
:10104000014800F048BD00004C040020014800F0B9
:1010500042BD0000740400203EB51D4801AC0823C9
:1010600001880A0A8DF804208DF80510018B0A0A00
:101070008DF806208DF80710018E0A0A8DF80820D9
:101080008DF80910B0F848009A01010A8DF80A108D
:101090008DF80B0000210F48009400F05BF80C491C
:1010A000082364390888020A8DF804208DF80500A9
:1010B000888A40F2FF22010A8DF806108DF8070099
:1010C0000020014602900094024800F043F83EBD23
:1010D000900A00204C04002010B504461B4B026807
:1010E00000210E208AB09A4201D1059103E0184BED
:1010F0009A4200D105900122CDE906120391049194
:10110000CDE908200091019102916946204600F046
:10111000D1FB08B100F01DF90221204600F054FB7C
:1011200008B100F016F9204601F016F808B100F0F9
:1011300010F96946204600F0BDFB204601F00CF88E
:101140000221204600F040FB0AB010BD00640040C0
:1011500000680040F0B587B000240C9E0746254685
:1011600049B10420CDE90120CDE903538DF8145095
:101170004FF6FE7506E002950092F5E7641CA4B2F6
:10118000AC420FD8384600F090FC0028F6D0012081
:1011900001F0C2F906AB32466946384600F026FB3C
:1011A000002800D0012007B0F0BD00003EB5224865
:1011B00001AC082330F8601F0A0A8DF804208DF86E
:1011C0000510018B0A0A8DF806208DF80710018E94
:1011D0000A0A8DF808208DF80910B0F848009A0125
:1011E000010A8DF80A108DF80B00002113480094B5
:1011F000FFF7B0FF104808233C3801880A0A8DF831
:1012000004208DF80510818A0A0A8DF806208DF8D1
:101210000710008D40F2FF12010A8DF808108DF8BA
:10122000090000208DF80A008DF80B0001460348E4
:101230000094FFF78FFF3EBD900A00207404002049
:101240000EB5010A8DF804108DF8050000208DF808
:1012500006008DF80700029001A8009008234FF4C3
:10126000047200210148FFF775FF0EBD4C040020F9
:10127000014800F0B7BF0000AC080020014800F0B2
:10128000B1BF00004C080020014800F0ABBF0000D7
:101290006C090020014800F0A5BF00000C090020E7
:1012A000014800F09FBF0000CC090020016818230E
:1012B000CAB2103AB2FBF3F2054B6FF30901032AED
:1012C0009B5CC36500D9091D816508467047000015
:1012D00090C2000810B5014600208B698A6A4FF061
:1012E000C07453B1B3F5005F15D072B1012A0CD0B0
:1012F000022A0AD0032A09D104E01AB1012A06D031
:10130000022A03D1C96AC90100D5012010BDC96AEA
:10131000A142FAD010BD002AF7D0012AF2D0022A49
:10132000F3D0032AF3D010BD30B50468256825F446
:1013300080252560046863608368402B036803D0C0
:1013400099600068C26030BD9A600068C16030BDBD
:101350007047704710B558B1084C491E0BD310F8B0
:10136000013B5340DBB234F8133083EA1222F4E736
:101370004FF6FF7010BD104610BD000090C0000871
:1013800010B5064C04E000BF10F8013B5340E25C8E
:10139000491E89B2F8D2104610BD000090BF000867
:1013A00070B57D482DED0A8BB0EE609AF0EE418A63
:1013B000B0F9020000EE900AB8EEE01ADFED771AFD
:1013C000774D18EE900AC1EE210AB0EE001A95EDA5
:1013D00000CA60EE810A10EE8C0AB0EE408AFFF778
:1013E0009DF941EC1B0B19EE100AFFF797F9B0EECF
:1013F000480AF5EE009A41EC1A0B0CEE290A10EEA1
:10140000100AFFF78BF941EC100B07F01DFA53ECB3
:101410001A2B51EC100BFFF74AF853EC1B2BFEF77D
:101420009FFFFFF7BFF95F4C00EE100AB4F90C0004
:1014300000EE900A5C48F8EEE00A03F011FCBDEE05
:10144000C00A10EE100A208019EE100AFFF766F9A4
:10145000D5ED000AB0EE480A41EC1A0B00EEA90ADD
:1014600010EE100AFFF75AF941EC100B08F084F85F
:1014700053EC1A2B51EC100BFFF719F841EC1A0B37
:1014800018EE900AFFF74AF953EC1A2BFFF709F808
:10149000FFF788F900EE100AB4F9240000EE900A74
:1014A0004148F8EEE00A743003F0DAFBBDEEC00A02
:1014B00010EE100A208318EE900AFFF72FF941EC86
:1014C0001B0B19EE100AFFF729F9D5ED000AB0EE53
:1014D000480A41EC1A0B00EEA90A10EE100AFFF7B9
:1014E0001DF941EC100B08F047F853EC1A2B51ECA6
:1014F000100BFEF7DCFF53EC1B2BFEF731FFFFF761
:1015000051F900EE100AB4F93C0000EE900A2648AA
:10151000F8EEE00AE83003F0A3FBBDEEC00A10EEDF
:10152000100A208619EE100AFFF7F8F8D5ED000A28
:10153000B0EE480A41EC1A0B00EEA90A10EE100AB0
:10154000FFF7ECF841EC100B07F07EF953EC1A2B87
:1015500051EC100BFEF7ABFF41EC190B18EE900AA3
:10156000FFF7DCF853EC192BFEF79BFFFFF71AF996
:1015700000EE100AB4F9540000EE900A0B48F8EEA1
:10158000E00A03F06DFBBDEEC00A10EE100AA4F8ED
:101590004800BDEC0A8B70BD2C0A002000F8FF4506
:1015A00098000020900A0020201400207C150020C4
:1015B00078B50024009490F83C20012A19D001222B
:1015C00080F83C200A6807230568092A13D9EE68C9
:1015D0000A3A02EB420293409E43EE600B788A681F
:1015E0000A3B03EB43039A400368DD682A43DA6051
:1015F00010E0022078BD2E6902EB420293409E4328
:101600002E610B788A6803EB43039A4003681D69D7
:101610002A431A614A681F23072A13D205686E6B92
:10162000521E02EB820293409E436E630A8893B27D
:101630000A79521E02EB820293400268556B2B43DB
:10164000536327E005680D2A12D22E6BD21F02EBDE
:10165000820293409E432E630B790A88DB1F92B26D
:1016600003EB83039A4003681D6B2A431A6311E05E
:10167000EE6A0D3A02EB820293409E43EE620B79D2
:101680000A880D3B92B203EB83039A400368DD6A3C
:101690002A43DA621B4B0568194A9D420AD10D683C
:1016A000122D07D1556825F400055560556845F49D
:1016B0008005556005689D421DD1134D0B68AB42F6
:1016C00001D0112B17D1536823F480035360536862
:1016D00043F4000353600968A9420CD10B490C4A3A
:1016E0000968B1FBF2F101EB8101490000E0491EFC
:1016F00000910029FBD180F83C40002078BD00001B
:101700000023014000200140120000102C000020A6
:1017100040420F0070B504004FF0000503D0206C6C
:10172000002610B107E0012070BD204600F01CF833
:10173000666484F83C60206CC00610D4206C20F4F1
:10174000885040F0020020642046FFF7B3F9666439
:10175000206C20F0020040F00100206400E0012530
:1017600084F83C60284670BD10B586B0044614214C
:101770006846FEF7E1FD1149206888421CD11048F7
:101780000021026842F480720260006800F48070F8
:1017900005900B481438026842F0010202600068AC
:1017A00000F001000590422000900320CDE90101E6
:1017B0006946044800F0C2FE06B010BD002001409A
:1017C000443802400000024090F82020012A07D04F
:1017D000022A05D0416A41F480214162012070470C
:1017E000006842690A43426100207047F0B590F8F2
:1017F00020500468A468012D05D0022D03D0416A51
:1018000041F4802153E014F0406F01D1E5004BD545
:10181000C4F30164022C03D9416A41F4000146E09B
:101820000125A5401D608D684FF4C0739DB1CE6841
:1018300035434E6845EAC605066803EB0417F551C3
:101840004FF4C275076805EB04150E697E51097DDA
:10185000012905D009E00E88CD6845EA4655EBE739
:1018600001684E5946F480764E511179D2F80550F0
:101870004FF4C67641EA0525016806EB04168D5142
:101880001178D2F801204FF4C47541EA02210268B0
:1018900005EB04155151006803EB0411425842F066
:1018A000010242500020F0BD416A41F40011416242
:1018B0000120F0BD10B590F82020012A07D0022A9F
:1018C00005D0416A41F480214162012010BD3B48AE
:1018D000D0F8002242F00102C0F80022D0F8002225
:1018E00022F47C52C0F80022D0F800224B6A42EA6F
:1018F0000322C0F800220A7D02F01F0301229A4051
:10190000D0F81C329343C0F81C32CB69B3B9D0F87D
:101910000C329343C0F80C328C894B6864F31F433C
:101920004C6900EBC404C4F840320C890B6864F3C2
:101930001F434C6900EBC404C4F84432CB69012B4B
:1019400016D1D0F80C321343C0F80C320C884B6817
:1019500064F31F434C6900EBC404C4F840320C89A3
:10196000CB6864F31F434C6900EBC404C4F84432F1
:101970008B69002BD0F804320ED01343C0F8043228
:101980000B69002BD0F8143208D01343C0F814327E
:10199000096A012904D008E09343EFE79343F5E790
:1019A000D0F81C121143C0F81C12D0F8001221F01C
:1019B0000101C0F80012002010BD000000640040CA
:1019C000704730B590F82040012C05D0022C03D090
:1019D000416A41F480215DE00468002955D0246902
:1019E000A40754D04FF4D874056804EB01142D59A2
:1019F00015F00405956005682D594ED0ED08556029
:101A000005682C59C4F34004D4604FF4DA740568B7
:101A100004EB01142D5905F00F05156105682D59CA
:101A2000C5F30725956105682C59240C54614FF4C2
:101A3000DC72046802EB0112A4581C700468A458FC
:101A4000240A5C700468A458240C9C700468A25892
:101A5000120EDA704FF4DE72046802EB0112A45821
:101A60001C710468A458240A5C710468A458240CEE
:101A70009C710468A258120EDA71006881B1016984
:101A800041F020010161002030BDE468A8E7416A0F
:101A900041F400114162012030BD6D0D1560AFE7CA
:101AA000C16841F02001C160EDE70246002092F8D4
:101AB0002010012901D002290CD111688A68520135
:101AC00000D501208A68120100D5401C8968C90030
:101AD00000D5401C70472DE9F05F054600680024E2
:101AE0004669D0F804908768D0F80CB0D0F810A000
:101AF000D0F81880F10748D0F90714D0012181608F
:101B0000B80703D5284600F054FB0CE0780702D54F
:101B10004FF4006407E0380702D54FF4805402E028
:101B2000284600F045FBF80516D529684FF480706B
:101B30008860B80503D5284600F03DFB0CE0780529
:101B400002D544F4005407E0380502D544F480443B
:101B500002E0284600F02EFBF80316D529684FF462
:101B600080308860B80303D5284600F026FB0CE0DF
:101B7000780302D544F4004407E0380302D544F466
:101B8000803402E0284600F017FB300707D55FEAF3
:101B9000CB6004D52968102044F40074C860700735
:101BA0004FF0080707D55FEA0B7004D52868C760B7
:101BB000284600F0A1F9B00706D52868C06880075C
:101BC00002D0284600F09AF9700607D55FEACA608D
:101BD00004D52968102044F480640861B00607D554
:101BE0005FEA0A7004D528680761284600F0B0FA59
:101BF000F00606D528680069800702D0284600F064
:101C0000A8FAB00308D55FEAC96005D52968102095
:101C10004860284600F09EFAF00307D55FEA097095
:101C200004D528684760284600F0C8FA300446D535
:101C30005FEA497040D5F00504D55FEAC87001D06D
:101C400044F00104B00504D55FEA887001D544F082
:101C50000204700504D55FEA487001D544F004041D
:101C6000300529D518F0700F26D008F070004028F4
:101C700015D006DC102809D020280AD0302816D12B
:101C80000AE050280ED0602811D10EE044F008047C
:101C90000DE044F010040AE044F0200407E044F0B2
:101CA000400404E044F0800401E044F480742868B7
:101CB000816921F070018161296804204860002C4D
:101CC00005D0686A204368622846FFF779FEBDE8C0
:101CD000F09F70B5040003D094F8200010B104E028
:101CE000012070BD204600F081F82068016821F0D5
:101CF0000201016000F014FD0546052604E000F035
:101D00000FFD401B0A2811D8206840688007F6D4D0
:101D10002068016841F00101016000F001FD054605
:101D20000BE000F0FDFC401B0A2806D9606A40F475
:101D30000030606284F82060D2E720684068C00705
:101D4000EFD0207E0128206801683DD021F080017D
:101D50000160607E01282068016838D021F04001D0
:101D60000160A07E01282068016833D021F02001A5
:101D70000160E07E0128206801682ED041F010014A
:101D80000160207F01282068016829D021F0080126
:101D90000160607F01282068016824D021F00401DF
:101DA0000160D4E902010843D4E904121143084355
:101DB0006168491E08432168C861002060620120F3
:101DC00084F82000002070BD41F08001C0E741F0A0
:101DD0004001C5E741F02001CAE721F01001CFE73B
:101DE00041F00801D4E741F00401D9E7F0B587B02C
:101DF000044614216846FEF79FFA3A4B3A48DFF84A
:101E0000E0E01968D4F800C0374A03250226092704
:101E100010300024491CF4452AD11960012907D14A
:101E2000016841F000710160006800F000700590E9
:101E3000106840F0080010601068CDE9005600F00E
:101E40000800CDE9047069462848CDE9024500F054
:101E500075FB00220521132000F0D4FC132000F0B4
:101E6000C3FC00220521142000F0CCFC142033E038
:101E7000DFF87CE0F44531D1D0F800C04CF0806C44
:101E8000C0F800C0D0F800C001290CF0806CCDF87B
:101E900014C0196007D1016841F000710160006849
:101EA00000F000700590106840F0020010601068AB
:101EB00002AB00F0020005904FF44050CDE900065F
:101EC00083E8B00069460B4800F038FB002205218A
:101ED000402000F097FC402000F086FC07B0F0BDE9
:101EE000006400402800002030380240000C02400E
:101EF0000068004000040240704700002DE9F041F6
:101F0000074600688849894E0025894C8AB04FF4FD
:101F1000FA7888427DD107AB6A4600218548FFF7F1
:101F200050FD002875D10098A0F2012003281ED88A
:101F30002188C0B2491C21809DF81D109DF81C20ED
:101F400000EB400006EBC00001EB022141809DF850
:101F50001F109DF81E2001EB022181819DF82110A8
:101F60009DF8202001EB0221C181057486E00098D4
:101F7000A0F5007111390BD001466C48A1F5007233
:101F80006438093A4FD0A1F500720A3A60D075E082
:101F90002088401C2080BDF81C0000EE100AF8EEDE
:101FA000400A9FED650A614880EE801AC03080EDDE
:101FB000001ABDF81E1000EE901AF8EE601AC1EE7D
:101FC000800AC0ED010ABDF8201001EE901AB8EEAB
:101FD000612AC2EE001AC0ED021ABDF8221002EE0C
:101FE000101AB8EE422AC2EE002AC0ED032A9FED75
:101FF000532A10EEA02ADFED522A524830F8012F62
:10200000C2EE220A20EE800ABDEEC00A10EE101ABF
:1020100000E039E021EE210A61F30C12028010EE9B
:10202000101A41602AE02188491C2180BDF81C104B
:1020300049BA4180BDF81E1049BA8180BDF8201010
:1020400049BAC1809DF8221001723848643813E003
:102050002188491C2180BDF81C1049BAC182BDF8F5
:102060001E1049BA0183BDF8201049BA41839DF87A
:10207000221001772D48503808F030F8208840456C
:1020800002D1258002F034F82F493868884248D1BF
:1020900007AB6A4600212D48FFF793FC002840D18A
:1020A0000098A0F20120032810D86088401C6080AE
:1020B00000989DF81D10C01CC0B29DF81C2000EBBC
:1020C000400001EB022106EBC00014E00098A0F2F2
:1020D000052003281FD26188C0B2491C61809DF889
:1020E0001D109DF81C2001EB022100EB80020F481F
:1020F0003C3800EB820041809DF81F109DF81E20A7
:1021000001EB022181819DF821109DF8202001EB37
:102110000221C18105746088404502D1658001F0CB
:10212000EFFF0AB0BDE8F08100640040900A002093
:10213000340000204C0400200000C842000080430E
:102140000000A043A41D002000680040740400208B
:10215000704770477047000070B5044690F8200043
:10216000012804D0606A40F40020606218E0022078
:1021700084F820002068016821F00101016000F06E
:10218000CFFA05460EE000BF00F0CAFA401B0A284D
:1021900008D9606A40F400306062052084F82000AD
:1021A000012070BD20684068C007EDD1606270BD3D
:1021B000704770477047704770477047704790F896
:1021C0003510022903D08021416501207047052187
:1021D00080F835100068016821F0010101600020DD
:1021E000704700002DE9F84304464FF00009CDF890
:1021F000009063484FF41651A56D0068B0FBF1F7ED
:102200002E6894F85C10082000FA01F131420FD0DA
:1022100021680A6852070BD50A6822F004020A6096
:1022200094F85C108840A860606D40F00100606523
:1022300094F85C104FF0010808FA01F0304208D021
:1022400021684969090604D5A860606D40F0020064
:10225000606594F85C1004208840304208D0216802
:102260000968890704D5A860606D40F004006065C6
:1022700094F85C1010208840304218D0216809681A
:10228000090714D5A86020680168490304D50068CF
:10229000000308D5A16C07E00168C90503D40168F3
:1022A00021F008010160216C09B12046884794F8AB
:1022B0005C1020208840304231D021680968C9066E
:1022C0002DD5A86094F8350005282068016806D04F
:1022D000490347D5006800031DD4616C1CE021F060
:1022E000160101602068416921F080014161206C84
:1022F00008B9A06C20B12068016821F008010160D4
:1023000094F85C103F208840A86084F8349084F8EA
:102310003580216D1FE0E16B09B120468847606D73
:1023200000282BD0606DC00714D0052084F835003C
:102330002068016821F0010101600098401C0090B4
:10234000B84203D820680068C007F6D184F83490FA
:1023500084F83580E16C002910D001B02046BDE83A
:10236000F04308470168C905D5D4016821F0100180
:10237000016084F8349084F83580CCE7BDE8F883B8
:102380002C0000202DE9F041044600F0C9F9064672
:102390005CB1002584F83450022084F835002068B0
:1023A000016821F0010101600DE00120BDE8F0812C
:1023B00000F0B6F9801B052805D9202060650320B0
:1023C00084F83500F2E720680068C007F0D1226881
:1023D000116820480140D4E901031843D4E90336C9
:1023E0003343184363691843A3691843E3691843E7
:1023F000236A18430843616A042903D1D4E90B1303
:1024000019430843106020684069666A20F007019C
:1024100030460E43012704280CD1A06A0643E06A27
:1024200040B12046FEF756FF20B14020606584F899
:102430003570BAE7206846612046FEF737FF94F80A
:102440005C203F2191408160656584F835700020F3
:10245000ACE700003F8010F070B5044690F83400FF
:10246000002501280CD0012084F8340094F8356050
:102470000020012E06D084F834000225284670BDC5
:10248000022070BD022684F8356060652046FEF7A4
:102490004BFF2068016841F001010160EEE72DE982
:1024A000F0410446866D90F83400002501280DD0D7
:1024B000012084F8340094F835700020012F07D0F3
:1024C00084F8340002252846BDE8F0810220FBE7AD
:1024D000022784F8357060652046FEF725FF94F8E2
:1024E0005C103F208840B0602068016841F0160110
:1024F00001602068416941F080014161206C20B198
:102500002068016841F0080101602068016841F01D
:1025100001010160D7E7000070B5044600F000F942
:102520000546601C02D004480078044400F0F8F826
:10253000401BA042FAD370BD380100202DE9F84FAE
:10254000DFF890B100224FF001084FF0030A4FF07E
:102550000F090BF1040E00BF0B6808FA02F42340C8
:10256000A3426ED14D68022D01D0122D0ED1D50897
:1025700000EB850CDCF820505607F70E09FA07F639
:10258000B5430E69BE402E43CCF820600668550066
:102590000F790AFA05FC07F0030726EA0C06AF409C
:1025A000374307604E68012E05D0022E03D0112E4E
:1025B00001D0122E0ED18768CE6827EA0C07AE40F4
:1025C0003E4386604668A6430C79C4F300149440E9
:1025D00034434460C4688E6824EA0C04AE40264349
:1025E000C6604C68E4006FD53B4C256845F48045D7
:1025F0002560246822F0030504F480440094374CDD
:102600002E19D6F8084895072F0F09FA07F5AC439D
:10261000334DA84201D100252EE0324DA84201D110
:10262000012529E0304DA84201D1022524E02F4D9B
:10263000A84201D103251FE02D4DA84202D1042557
:102640001AE041E02B4DA84201D1052514E02A4DA6
:10265000A84201D106250FE0284DA84201D1072547
:102660000AE0274DA84201D1082505E0254DA842E2
:1026700001D1092500E00A25BD402543C6F80858C8
:10268000DBF800405D464E689C43F60300D51C43D2
:102690002C60DEF8004075464E689C43B60300D5BA
:1026A0001C432C600B4D08352C684E689C43F60289
:1026B00000D51C432C60074D0C352C684E689C439C
:1026C000B60200D51C432C60521C102AFFF444AF04
:1026D000BDE8F88F003C0140443802400030014022
:1026E000000002400004024000080240000C0240CA
:1026F000001002400014024000180240001C02407A
:102700000020024000240240426931EA020200D166
:102710000904816170470AB1816170470904FBE7D0
:102720000148806870470000380100200248816835
:102730000278114481607047380100200B4810B5C1
:10274000016841F400710160016841F48061016039
:10275000016841F480710160032000F073F80F20DC
:1027600000F006F800F024F8002010BD003C024004
:1027700070B50D4D04464FF47A712878B1FBF0F036
:102780000A490968B1FBF0F000F02BFD48B9102CA4
:1027900007D200222146501E00F034F800206C6061
:1027A00070BD012070BD0000380100202C00002009
:1027B0000C4882B0016841F480410160006800F477
:1027C000804000900748001F016841F0805101607F
:1027D0000068002200F0805000900F21901E02B08F
:1027E00000F010B844380240002809DB00F01F0256
:1027F000012191404009800000F1E020C0F8001163
:1028000070470000F0B40E4B1B680C46C3F3022364
:10281000C3F10705042D00D90425191D072901D28C
:10282000002300E0DB1E012606FA05F1491E2140C7
:1028300099409E40761E16403143F0BC05F032BAF6
:102840000CED00E0064900F0070208684FF6FF03B0
:10285000184040EA0220034A104308607047000015
:102860000CED00E00000FA052DE9F0470E460500EA
:1028700065D0DFF81481D8F80000F7B200F00F003F
:10288000B04207D288F80070D8F8000000F00F00BE
:10289000B04254D128683D4C810712D5400703D57A
:1028A000206840F4E05020602878000703D52068B5
:1028B00040F4604020602068A96820F0F0000843E0
:1028C00020602878C0072DD0304968680839012871
:1028D00012D0022813D0032811D0096889070029D3
:1028E0002DDA216821F0030101432160FFF718FF71
:1028F000814641F2883A0EE009688903EFE70968EA
:102900008901ECE7FFF70CFFA0EB0901514502D963
:102910000320BDE8F0872068696800F00C00B0EB88
:10292000810FEFD1D8F80010404601F00F01B142FD
:1029300007D90770006800F00F00B04201D00120F5
:10294000E7E72878400705D52068E96820F4E050DB
:10295000084320602878000706D52068296920F4FC
:10296000604040EAC100206000F036F82168084A63
:10297000C1F30311515CC840064908600F20FFF7FE
:10298000F7FE0020C5E70000003C02400838024086
:1029900064BF00082C00002004480549006809684D
:1029A000044AC1F38221515CC84070472C000020CA
:1029B0000838024074BF00080448054900680968E7
:1029C000044AC1F34231515CC84070472C000020DA
:1029D0000838024074BF0008154810B5006810F0B0
:1029E0000C02144813D01449042A0FD0082A0ED11F
:1029F0000F4C241F2268236802F03F025B0207D5B8
:102A00002068C0F38810A0FB010106E0084610BD55
:102A10002168C1F38811A1FB00010023FDF742FCEE
:102A20002168C1F30141491C4900B0FBF1F010BD20
:102A3000083802400024F400001BB7002DE9F84FCD
:102A4000050076D02878DFF8F8B2BE4CC00749D030
:102A5000DBF800105846C1F38101012908D0006855
:102A6000C0F3810002280AD1201D0068400206D56B
:102A70002068800336D568680028E2D032E06868B4
:102A8000B0F5803F10D0B0F5A02F206810D020F412
:102A900080302060206820F4802020606868A0B129
:102AA000FFF73EFE06460CE0206840F48030F4E775
:102AB00040F480202060F7E7FFF732FE801B642897
:102AC00073D820688003F7D50CE0FFF729FE06468F
:102AD00005E000BFFFF724FE801B6428F0D82068C3
:102AE0008003F7D42878DFF8608280074FF0000970
:102AF0003ED5DBF80010584611F00C0F09D00068E5
:102B0000C0F3810002280BD18D48001F00684002ED
:102B100006D42068800715D5E868012809D111E09E
:102B2000E868B8B10120C8F80000FFF7F9FD0646D3
:102B300005E002E1FFF7F4FD801B0228C0D8206801
:102B40008007F7D52068296920F0F80040EAC10025
:102B500020600DE0C8F80090FFF7E2FD064604E0B3
:102B6000FFF7DEFD801B02281FD820688007F7D4FE
:102B70002878000722D5724E744869696C3671B1A5
:102B800001210160FFF7CCFD074604E0FFF7C8FD17
:102B9000C01B022809D830688007F7D50EE0C0F8BE
:102BA0000090FFF7BDFD074605E083E0FFF7B8FDA5
:102BB000C01B02287ED830688007F7D428784007E9
:102BC00068D5DFF87CA100270AF1380ADAF800009E
:102BD000C0000BD4DAF8001041F08051CAF80010A0
:102BE000DAF80000012700F080500090584E30685D
:102BF000C00510D4306840F480703060FFF790FD5D
:102C0000009005E0FFF78CFD0099401A022851D88A
:102C10003068C005F6D54A4EA868683601280FD03E
:102C20000528306810D020F001003060306820F0B6
:102C300004003060A868B8B1FFF772FD00900FE0A3
:102C4000306840F00100F4E740F004003060F7E73E
:102C5000FFF766FD0099411A41F28830814264D83D
:102C600030688007F4D50EE0FFF75AFD009007E0CA
:102C7000FFF756FD0099411A41F28830814254D83D
:102C800030688007F4D42FB1DAF8001021F08051B9
:102C9000CAF80010A869C0B3DBF80010C1F38101C5
:102CA00002294AD00228484607D0C8F86000FFF73A
:102CB00037FD00E039E005463AE04746C8F86000D5
:102CC000FFF72EFD064604E0FFF72AFD801B0228D1
:102CD0002BD820688001F7D4D5E907010843A96AF9
:102CE0001C4A490802EB01416A6A41EA8211084321
:102CF00095F82C1040EA01611148001F0160012085
:102D00003866FFF70DFD054605E014E0FFF708FD06
:102D1000401B022809D820688001F7D50BE000BFCE
:102D2000FFF7FEFC401B022802D90320BDE8F88F04
:102D300020688001F4D40020F8E70120F6E70000C5
:102D4000083802400038024000004742800E4742E7
:102D5000007000400000FFFF70B5040005D00025A2
:102D6000A56294F8510010B106E0012070BD84F80E
:102D70005050204600F030F8022084F851002068BE
:102D8000016821F040010160D4E901010843D4E960
:102D900003121143084361690843218B01F4007158
:102DA0000843E1690843216A0843A16A084321688E
:102DB0000860A069042101EA1040616A08432168A3
:102DC00048602068C16921F40061C1616565012026
:102DD00084F85100002070BDF0B587B0044614217E
:102DE0006846FDF7A9FA2A48284B2268002428499A
:102DF00014380225032605279A4227D10A6842F48F
:102E000080520A60096801F480510591016841F01F
:102E100002010160016801F002010591016841F0C1
:102E200001010160006802AA00F00100059018206D
:102E3000CDE9000582E8D00069461648FFF77EFB21
:102E40008020CDE900056946134818E0134B9A42EB
:102E50001AD10A6842F480120A60096801F48011EC
:102E60000591016841F0200101600068694600F0A9
:102E7000200005904FF46070CDE90005084802AAD3
:102E800082E8D000FFF75AFB07B0F0BD00300140E8
:102E9000443802400004024000000240005001405B
:102EA000001402402DE9F84F044690F85000002726
:102EB0001D461646894601280DD04FF0010B84F8B7
:102EC00050B0FFF72DFC804694F85100BA46012817
:102ED00004D002278EE00220BDE8F88FB9F1000F80
:102EE0007DD0002E7BD0032084F85100C4F854A07C
:102EF000C4F83090A686E686C4F838A0A4F83CA0B2
:102F0000A4F83EA0C4F844A0C4F840A0A068B0F55E
:102F1000004F04D12068016841F4804101602068BD
:102F20000168490603D4016841F040010160E0688E
:102F3000B0F5006F606803D030B3012E24D040E0BC
:102F400008B1012E1CD1206B21680088C86006E002
:102F500020688168890709D5216B0988C160206BC9
:102F6000801C2063E08E401EE08609E0FFF7D8FB5E
:102F7000A0EB0800A84202D3681C01D031E07DB369
:102F8000E08E0028E4D11FE0206B216800780873F0
:102F900006E020688168890709D5216B09780173EB
:102FA000206B401C2063E08E401EE08609E0FFF7A6
:102FB000B7FBA0EB0800A84202D3681C01D010E0C8
:102FC00075B1E08E0028E4D142462946204603F040
:102FD000B1FD08B120206065A06820B107E008E0DD
:102FE000FFE7032706E02068C16880680090606DF5
:102FF00000B1012784F851B084F850A038466BE73F
:103000002DE9F84F044690F8500000270A9E1D460F
:1030100092468B464FF0010901280ED0012084F81A
:103020005000FFF77DFB804694F85100616801284D
:103030000CD0B1F5827F07D102E00220BDE8F88F05
:10304000A16809B9042801D00227C2E0BBF1000F32
:1030500027D0BAF1000F24D01DB394F851000428F2
:1030600002D0052084F8510000206065C4F838A023
:10307000E587A587C4F830B0E586A586206460643E
:1030800020680168490603D4016841F040010160ED
:10309000E068B0F5006F606805D0E8B3012D46D058
:1030A0007FE0012795E008B1012D39D1206B21681F
:1030B0000088C860206B801C2063E08E401EE08684
:1030C0002EE02068816889070FD5E18E69B1B9F1DA
:1030D000010F0AD1216B0988C160206B801C20631D
:1030E000E08E401EE0864FF0000920688168C90725
:1030F0000CD0E18F51B1C068A16B0880A06B801C1F
:10310000A063E08F401EE0874FF00109FFF708FB46
:10311000A0EB0800B04200E009E001D3701C50D1E0
:10312000E08E0028CDD1E08F0028CAD13FE0206B8F
:10313000216800780873206B401C2063E08E401EDD
:10314000E0862EE02068816889070FD5E18E69B19D
:10315000B9F1010F0AD1216B09780173206B401C72
:103160002063E08E401EE0864FF0000920688168F1
:10317000C9070CD0E18F51B1C068A16B0870A06B7A
:10318000401CA063E08F401EE0874FF00109FFF76D
:10319000C7FAA0EB0800B04202D3701C01D010E0C7
:1031A0007EB1E08E0028CDD1E08F0028CAD1424602
:1031B0003146204603F0BEFC28B10127202060657F
:1031C00007E0032705E0A06818B92068C168806897
:1031D0000090012084F85100002084F85000384607
:1031E0002CE710B5401EB0F1807F01D3012010BD47
:1031F0004FF0E02460610F21601704F053FD0020C0
:10320000A06107202061002010BD7047704710B5F5
:1032100090F83C20012A22D0012280F83C20CA6884
:103220008C6822F4407222434C6822F4806222436C
:103230000C6822F4006222430C6922F4805222437B
:103240004C6922F400522243C969002322F48042CF
:103250000A4301684A6480F83C30002010BD022017
:1032600010BD70B590F83C20012A19D0012400F857
:103270003C4F0222427050F83C3C5A689D6822F054
:1032800070060A684968324325F0800529435A6070
:1032900050F83C2C9160447000210170084670BDCC
:1032A000022070BD10B5040003D094F83D0010B1A9
:1032B00007E0012010BD002084F83C00204600F00B
:1032C0000DF8022084F83D00211D206803F0B2FFB4
:1032D000012084F83D00002010BD000008B5214AFF
:1032E00001682148914207D1016841F00401016061
:1032F000006800F0040009E01C4A914208D101680E
:1033000041F008010160006800F00800009008BD6D
:10331000174A91420ED1016841F010010160006826
:10332000002200F01000009005213620FFF76AFA15
:10333000362012E00F488142E9D10B48001D016898
:1033400041F4802101600068002200F48020009098
:1033500005211A20FFF756FA1A20BDE80840FFF7AA
:1033600043BA00000008004040380240000C004012
:1033700000100040004801400168CA6842F00102A4
:10338000CA600068816801F00701062903D001685E
:1033900041F001010160002070470168CA6822F015
:1033A0000102CA600068016A41F21112114207D19C
:1033B000016A9210114203D1016821F001010160FC
:1033C0000020704770B5044690F83C00012817D0E3
:1033D000012584F83C50022084F83D002068826872
:1033E00022F0770222F47F4282600868502830D0B1
:1033F0000DDC20284DD005DC98B310283BD148E0E7
:10340000022070BD302844D0402834D139E06028F3
:1034100028D0702806D0B0F5805F2CD0B0F5005FC2
:1034200029D10AE0CB68D1E90121206803F073FFBC
:103430002068816841F0770109E0CB68D1E901217A
:10344000206803F068FF2068816841F48041816052
:1034500011E0CA684968206804F032F850212068F9
:1034600007E016E0CA684968206804F03AF860216D
:10347000206803F05AFF84F83D50002084F83C0097
:1034800070BDCA684968206804F01AF840212068B5
:10349000EFE7226801461046EBE7704770B5044637
:1034A000006801694FF00005C943890715D4C16858
:1034B000C943890711D4E91E0161012020772068E2
:1034C00080698007204602D0FFF7E7FF04E000F0A4
:1034D00009F9204600F0C4F9257720680169C9433D
:1034E000490717D4C168C943490713D46FF00401D1
:1034F0000161022020772068806910F4407F204617
:1035000002D0FFF7CAFF04E000F0ECF8204600F01C
:10351000A7F9257720680169C943090716D4C1684E
:10352000C943090712D46FF0080101610420207714
:103530002068C0698007204602D0FFF7AEFF04E094
:1035400000F0D0F8204600F08BF92577206801695B
:10355000C943C90617D4C168C943C90613D46FF05B
:1035600010010161082020772068C06910F4407FB5
:10357000204602D0FFF791FF04E000F0B3F82046A8
:1035800000F06EF9257720680169C943C90708D1A1
:10359000C168C943C90704D1891E0161204600F0F2
:1035A000B1F920680169C943090609D4C168C94352
:1035B000090605D46FF0800101612046FFF725FE62
:1035C00020680169C943490609D4C168C94349064D
:1035D00005D46FF040010161204600F0A7F9206892
:1035E0000169C94389060BD4C168C943890607D458
:1035F0006FF0200101612046BDE87040FFF706BE74
:1036000070BD000030B587B0044614216846FCF751
:1036100093FE24682B4800222B490223844212D1B6
:10362000086840F0010008600868694600F0010081
:1036300005904FF470600090CDE901320120CDE992
:103640000320224811E02248844212D1086840F049
:10365000020008600868694600F00200059020201A
:103660000090CDE901321B4815E0FEF767FF07B077
:1036700030BD194D1948AC4210D10C6844F080049B
:103680000C60096801F0800105914FF440610091E0
:10369000CDE901326946CDE90323E6E7104DAC429E
:1036A000E5D10C6844F080040C60096801F08001E9
:1036B000059140210091CDE901320921CDE9032195
:1036C0006946D2E700000140303802400000024065
:1036D0000004004000040240000C0040001C0240B6
:1036E00000180040704770B5044690F83C000D4645
:1036F00001280DD0012684F83C60022084F83D00AA
:1037000042B1042A18D0082A2AD00C2A4DD139E017
:10371000022070BD206803F011FE2068816941F02D
:10372000080181612068816921F0040181612068BC
:1037300081692A69114311E0206803F02FFE206897
:10374000816941F4006181612068816921F48061AF
:103750008161206881692A6941EA0221816124E04E
:10376000206803F051FE2068C16941F00801C16181
:103770002068C16921F00401C1612068C1692A691A
:10378000114311E0206803F073FE2068C16941F421
:103790000061C1612068C16921F48061C161206854
:1037A000C1692A6941EA0221C16184F83D600020B3
:1037B00084F83C0070BD10B5040003D094F83D00BF
:1037C00010B107E0012010BD002084F83C00204625
:1037D00000F00CF8022084F83D00211D206803F061
:1037E00029FD012084F83D00002010BD08B50168C6
:1037F0001748814212D11748016841F00101016068
:103800000068002200F00100009005211A20FEF758
:10381000F9FFBDE808401A20FEF7E6BF0D480E4A42
:10382000001F914207D1016841F002010160006868
:1038300000F0020009E0094A914207D1016841F015
:1038400040010160006800F04000009008BD0000E9
:1038500000000140443802400004004000180040CD
:103860007047000010B504460068012203F046FDD1
:103870000B492068884202D00A49884203D1416C32
:1038800041F4004141642068816801F00701062984
:1038900003D0016841F001010160002010BD00006B
:1038A000000001400004014010B5044600680022F9
:1038B00003F024FD114841F2111221689310814256
:1038C00002D00F48814209D1086A104206D1086A25
:1038D000184203D1486C20F4004048642068016A13
:1038E000114206D1016A194203D1016821F0010198
:1038F0000160012084F83D00002010BD000001405F
:1039000000040140074900680968884209D1064857
:103910004FF4FA520188491C89B20180914200D3C8
:10392000028070478C06002030000020704701683C
:103930000A680A68D243D20703D14A686FF00102CD
:103940000A6001680A68D243920703D44A686FF09C
:1039500002020A6001680A68D243520703D44A6827
:103960006FF004020A6000680168C943090703D4C4
:10397000C1686FF008010160704710F8391F407886
:103980000843704770B5026804461068D1685369EF
:1039900010F00F0F50D003F0010501F4907635437D
:1039A0005DD0C20705D0CA0503D5E26B42F0010223
:1039B000E263420705D5DA0703D0E26B42F0020268
:1039C000E263820705D5DA0703D0E26B42F0040216
:1039D000E263020705D5DA0703D0E26B42F0080282
:1039E000E263E26B002A33D0800604D5880602D554
:1039F000204603F028FE20684069E16BC0F3801088
:103A0000090700D428B3204603F0F6FD2068416979
:103A100049061AD5416921F040014161606BA0B1AE
:103A20001B490165606BFEF7CAFB002810D0606B74
:103A3000016DBDE870400847830610D58B060ED592
:103A40002046BDE8704003F0FEBD2046FFF76FFF43
:103A500070BD2046FFF76BFF0020E06370BD0306DA
:103A600006D50B0604D52046BDE8704003F08CBF98
:103A70004006F3D54806F1D5D168204621F0400133
:103A8000D160202184F8391000F0ECFA70BD0000FC
:103A90002175000870B5040004D094F839000025A1
:103AA00010B106E0012070BD84F83850204600F0C7
:103AB00023F8242084F839002068C16821F40051DB
:103AC000C160204603F00AFE2068016921F490419C
:103AD00001612068416921F02A0141612068C168C3
:103AE00041F40051C160E563202084F8390084F876
:103AF0003A00002070BD00002DE9F04F87B0044669
:103B000014216846FCF718FCB448DFF8CC82103862
:103B1000D4F800C0B14F022201230321DFF8C0A274
:103B2000002506154FF00809C4455BD1D7F800C041
:103B30004CF0804CC7F800C03F6807F080470597FD
:103B4000076847F0100707600068CDE9023100F010
:103B500010000590C801CDE90002CDF8109069462B
:103B60005046FEF7EBFCDFF880829E4940464FF05E
:103B70002067C8F80010C0E90175C0E90356C8F80D
:103B80001450C8F81850C8F81C50C8F82050B14656
:103B9000C8F82450FEF7F6FB08B1FDF7DAFB924EA9
:103BA0009048C4F8348060363038C8F83840E6E8C9
:103BB00002074020A6E821028B4846F814596030DD
:103BC000B561F56135627562FEF7DCFB08B1FDF7A2
:103BD000C0FB2663002205215220B463FEF712FECB
:103BE000522021E0DFF80482C44522D13C6844F031
:103BF00000443C603C6804F000440594046844F0D0
:103C000010040460006800F0100005908DE80E00BC
:103C1000CDE9031969465046FEF790FC00220521C4
:103C20005320FEF7EFFD5320FEF7DEFD07B0BDE8A1
:103C3000F08FDFF8BC81DFF8A4B14FF0070A0BF179
:103C4000040BC4453CD1DBF800C04CF0100CCBF8A1
:103C500000C0DBF8007007F010070597076847F011
:103C6000020707600068CDE9023100F0020005900C
:103C7000C020CDE90002CDF810A069465D48FEF7EE
:103C80005DFC594F5C48C03738604FF00060C7E9B1
:103C90000105C7E90356C0147D61C7E906503D62BE
:103CA00038467D62FEF76EFB08B1FDF752FB676395
:103CB000002205212520BC63FEF7A4FD2520B3E7E3
:103CC000DFF83881C44521D13C6844F400343C60BD
:103CD0003C6804F400340594046844F0080404606B
:103CE0000068CDE9023100F0080005906020CDE9C0
:103CF0000002CDF810A069464148FEF71FFC0022E3
:103D000005212620FEF77EFD26208DE73D4FBC4590
:103D10008CD1DBF800C0AA464CF0200CCBF800C0D8
:103D2000DBF8007007F020070597076847F04007A9
:103D300007600068CDE9023100F0400005904FF4C3
:103D40008440CDE90002CDF8109069462E48FEF778
:103D5000F5FB2949DFF8B480183940468F05C8F8CB
:103D60000010C0E90175C0E90356C8F81450C8F83E
:103D70001850C8F81C50C8F82050C8F82450FEF756
:103D800001FB08B1FDF7E5FA204D1B48C4F834806B
:103D900060356030C8F83840C5E900074020A860A9
:103DA000C5E903A6C5F814A0C5F818A0C5F81CA05D
:103DB000C5F820A02846C5F824A0FEF7E3FA08B10C
:103DC000FDF7C7FA2563002205214720AC63FEF703
:103DD00019FD472028E700000078004040380240E5
:103DE00000100240586002404C080020007C004057
:103DF00000100140000402404064024000440040C2
:103E0000000C024000140140001802406C09002020
:103E1000F8B5044690F83A0020283CD1C1B3BAB3B3
:103E200094F83800012836D0012084F83800A162C7
:103E3000A2850025E563222084F83A00636B1748C9
:103E4000D863636B16481864636B1648D864606B5C
:103E5000134605650846666B216802463046091D13
:103E6000FEF71DFB206801684168009184F8385016
:103E7000C16841F48071C1602068416941F001016D
:103E800041612068416941F0400141610020F8BD75
:103E9000FFE70120FBE70220F9E700007B7500083F
:103EA000B77500083175000890F83A30202B22D100
:103EB000F9B1F2B190F83830012B1CD081628285C3
:103EC000C2850021C163222280F83A2080F8381090
:103ED0000168CA6842F48072CA6001684A6942F0A7
:103EE00001024A610068C16841F02001C160002000
:103EF00070470120704702207047000010B504464B
:103F00000748844201D103F01FFE0648844201D1D4
:103F100006F0FCFD2046BDE81040FFF708BD00009C
:103F20000C0800200C07002070472DE9F8430446D8
:103F300090F839001F4616460D46202850D1A5B1ED
:103F40009EB194F8380001284AD0012084F8380046
:103F50004FF00008C4F83C80212084F83900FEF7B7
:103F6000DFFBA6848146E68426E00120BDE8F883D5
:103F7000E08C401EE084A0684B46B0F5805F4FF0B7
:103F800000024FF080012046009703D003F02DFD82
:103F9000E8B90DE003F029FDC8B928882168C0F30D
:103FA00008004860206908B16D1C05E0AD1C03E005
:103FB000216815F8010B4860E08C0028D8D14B46E9
:103FC000002240212046009703F00FFD08B1032096
:103FD000CCE7202084F8390084F838800020C5E739
:103FE0000220C3E770B5044690F83900202830D18C
:103FF00069B362B394F8380001282AD0012084F80C
:1040000038002162A284E2840025E563212084F83F
:104010003900236B1048D863236B10481864236B56
:104020000F48D864206B134605652668206B321D47
:10403000FEF735FA21686FF04000086084F83850C8
:104040002068416941F080014161002070BD01207C
:1040500070BD022070BD0000C1750008EF7500083A
:104060003175000870477047FEE710B506F08EFE08
:1040700006F070F806F0ACFABDE810400020FEF73C
:104080004BBA000010B502F051F80122064907486A
:10409000FFF7BEFE08B1FDF75CF9BDE81040012254
:1040A00001490248FFF79EBF0D0100200C070020C8
:1040B0000A48B0F96C10B0F9840011F57A7F04DA7F
:1040C000B0F57A7F01DD0120704711F1640F03DD47
:1040D000642801DA0020704702207047900A00200F
:1040E000012251030148FEF716BB000000180240F0
:1040F0004FF480410148FEF707BB00000014024066
:104100004FF400610148FEF7FFBA000000100240C2
:104110001949488DB1F92C20821A184802614B8D3B
:104120008B85437913B1002242710EE041F288334E
:104130009A4203DDA2F5F852FF3A026141F2883358
:10414000DA4203DA41F6FF731A44026100EE102AE4
:10415000D1ED0C0A9FED0A1AB8EEC00A30EE800AC3
:1041600081ED0C0AC0EE010AB2EE040A20EE800ACC
:1041700080ED050A70470000540A0020C0000020AE
:1041800000F8FF452DE9F041554C0F462DED028B0F
:10419000F0EE408A0546D4ED040A00F061FD94ED8E
:1041A000040A514C95ED0F8A30EE680AB4F90C0000
:1041B0004E4D4C4AB0EEC00A10EE101A00EE100A36
:1041C00005F1740805F1E806F8EEC00A97ED000A5B
:1041D00005F5AE759142B8EEC00A3EDD30EE080A34
:1041E000424800F03DFDBDEEC00A10EE100A2080EE
:1041F000B4F9240000EE100A4046F8EEC00A97ED2C
:10420000010AB8EEC00A30EE080A00F029FDBDEE42
:10421000C00A10EE100A2083B4F93C0000EE100A28
:104220003046F8EEC00A97ED020AB8EEC00A30EE4A
:10423000080A00F015FDBDEEC00A10EE100A208637
:10424000B4F9540000EE100AF8EEC00A97ED030A24
:10425000B8EEC00A30EE080A35E0244800F000FD50
:10426000BDEEC00A10EE100A2080B4F9240000EE62
:10427000100A4046F8EEC00A97ED010AB8EEC00AEF
:1042800000F0EEFCBDEEC00A10EE100A2083B4F977
:104290003C0000EE100A3046F8EEC00A97ED020A24
:1042A000B8EEC00A00F0DCFCBDEEC00A10EE100A49
:1042B0002086B4F9540000EE100AF8EEC00A97ED1B
:1042C000030AB8EEC00A284600F0CAFCBDEEC00AD8
:1042D00010EE100AA4F84800BDEC028BBDE8F08196
:1042E0002C0A002000004843900A002020140020DF
:1042F0007FB5002415480094019402941249039458
:1043000001604FF48031C0E901140461047680F843
:1043100020400F49C0E90A140125C561C46080F836
:1043200030404561FDF7F6F908B1FDF712F80620B7
:10433000CDE90005694602940448FDF739F90028E3
:1043400001D0FDF706F87FBD0020014004040020E5
:104350000100000F104810B50E49016003214160B3
:1043600000214FF400228160C0E903124FF4401293
:1043700042610176012242768176C17601774177EA
:10438000FDF7A7FC002803D0BDE81040FCF7E1BF13
:1043900010BD0000006400404C0400200F4810B520
:1043A0000D4901600321416000214FF4002281602A
:1043B000C0E903124FF440124261017641768176E2
:1043C000C17601774177FDF784FC002803D0BDE872
:1043D0001040FCF7BEBF10BD006800407404002010
:1043E0001D4808B5016841F480010160016801F4CD
:1043F00080010091016841F4001101600068002211
:1044000000F40010009005210C20FEF7FBF90C20B1
:10441000FEF7EAF9002205210E20FEF7F3F90E203F
:10442000FEF7E2F9002205213920FEF7EBF93920E9
:10443000FEF7DAF9002205213A20FEF7E3F93A20E7
:10444000FEF7D2F9002205214520FEF7DBF9BDE891
:1044500008404520FEF7C8B93038024010B596B084
:104460001C2211496846FBF74EFF0021684606F002
:1044700051FE0E4C0C491C22E0601C3107A8FBF7D2
:1044800042FF002107A806F045FE074920611C22D3
:1044900038310EA8FBF737FF00210EA806F03AFED0
:1044A000606116B010BD000010BF000800000020C1
:1044B0002DE9F04F87B014216846FBF73DFF4748D0
:1044C0000024016841F010010160016801F0100151
:1044D0000591016841F002010160016801F00201EB
:1044E0000591016841F040010160016801F040015F
:1044F0000591016841F001010160016801F00101CD
:104500000591016841F008010160016801F00801AE
:104510000591016841F080010160016801F08001AE
:104520000591016841F0200101600068DFF8B0905A
:1045300000F020004FF4005505900022294648461F
:10454000FEF7E9F8DFF89CA04FF4C0660022314680
:104550005046FEF7E0F8DFF890B000223C215846C4
:10456000FEF7D9F844F24007002239461F48FEF70B
:10457000D2F84FF40068002241461D48FEF7CBF800
:1045800000950125CDE90154694648460394FDF79D
:10459000D5FF0096CDE90154694650460394FDF7D6
:1045A000CDFF3C200090CDE9015469465846039464
:1045B000FDF7C4FF0097CDE9015469460B48039409
:1045C000FDF7BCFFCDF80080CDE9015469460848ED
:1045D0000394FDF7B3FF07B0BDE8F08F3038024019
:1045E0000018024000040240001C02400014024077
:1045F00000100240104810B50E4901604FF482715E
:10460000416000218160C1604FF400720161C0E926
:1046100005122822C0E90721416281620A21C16294
:10462000FEF79AFB002803D0BDE81040FCF791BECE
:1046300010BD0000003001409C0400200F4810B560
:104640000D4901604FF48271416000218160C160B9
:104650004FF400720161C0E90512C161016241625B
:1046600081620A21C162FEF777FB002803D0BDE812
:104670001040FCF76EBE10BD00500140F404002055
:104680000B4810B509490160A7214160002140F2A3
:10469000E732C0E9021201618161FEF703FE0028E2
:1046A00003D0BDE81040FCF754BE10BD00480140E7
:1046B0008C06002010B588B01C216846FBF73CFE34
:1046C000124811490024016040F24731C0E9011449
:1046D0002421C0E903148461FFF76DF808B1FCF7E9
:1046E00038FE602000901220CDE9010400226946C6
:1046F00006480494FEF7F7FF08B1FCF72AFE0348CA
:10470000FEF780FF08B010BD00180040CC06002066
:1047100010B592B000240F941C2168461094FBF74A
:104720000BFE202107A8FBF707FE2D482B4901604F
:10473000A721C0E9011444F62061C0E903144461D3
:104740008461FFF738F808B1FCF703FE0F940FA956
:1047500023481094FEF785FD08B1FCF7FAFD6020B0
:1047600000904FF47A70CDE9010403940494059409
:10477000002269461A480694FEF7B5FF08B1FCF717
:10478000E8FD042269461648FEF7ADFF08B1FCF7C4
:10479000E0FD082269461248FEF7A5FF08B1FCF7C4
:1047A000D8FD0C2269460E48FEF79DFF08B1FCF7C4
:1047B000D0FD0794089409944FF400500A94CDE971
:1047C0000B4007A906480E94FEF721FD08B1FCF73F
:1047D000C0FD0348FEF716FF12B010BD00000140F7
:1047E0004C05002010B58AB0002407941C216846AF
:1047F0000894FBF7A1FD1648144901604721C0E960
:10480000011440F2E731C0E903148461FEF7D3FFDD
:1048100008B1FCF79EFD079407A90D480894FEF720
:1048200020FD08B1FCF795FD6020CDE9000402945D
:104830000422694606480494FEF755FF08B1FCF7C8
:1048400088FD0348FEF7DEFE0AB010BD00040040FC
:104850008C05002010B586B0002416480094019401
:104860000294039404941249059401604FF47A7100
:10487000C0E90114C46004618461FEF713FD08B14E
:10488000FCF767FD4FF48050009069460948FEF739
:1048900099FD08B1FCF75DFD049404A90548059451
:1048A000FEF7DFFC002801D0FCF753FD06B010BD79
:1048B00000080040CC05002010B58EB000240794FD
:1048C000089409940A940B941C2168460C94FBF7F5
:1048D00033FD2348214901604721C0E9011444F612
:1048E0001F61C0E903148461FEF7DCFC08B1FCF72A
:1048F00030FD4FF48050079007A91948FEF762FD7C
:1049000008B1FCF726FD1648FEF755FF08B1FCF785
:1049100020FD0B940BA912480C94FEF7A2FC08B1E1
:10492000FCF717FD602000904FF47A70CDE9010488
:10493000002269460A480494FEF7D5FE08B1FCF748
:1049400008FD042269460648FEF7CDFE08B1FCF7D3
:1049500000FD0348FEF756FE0EB010BD000C0040EF
:104960000C0600201CB500240F4800940D4901944A
:10497000016041F61F41C0E9011442F20F718461E8
:10498000C160FEF78FFC08B1FCF7E3FC00946946B8
:1049900005480194FEF765FC002801D0FCF7D9FC1E
:1049A0001CBD0000001000404C0600200C4810B553
:1049B0000A4901604FF4E1314160002181600C221D
:1049C000C160C0E904128161C161FFF763F800288A
:1049D00003D0BDE81040FCF7BCBC10BD007800401F
:1049E0000C0700200C4810B50A4901604FF416511D
:1049F0004160002181600C22C160C0E90412816124
:104A0000C161FFF747F8002803D0BDE81040FCF76C
:104A1000A0BC10BD007C00404C0700200D4810B524
:104A20000B4901600C49416000214FF480628160B4
:104A3000C0E903120C22C0E90521C161FFF72AF881
:104A4000002803D0BDE81040FCF783BC10BD000077
:104A5000001001408C070020A08601000C4810B512
:104A60000A4901604FF4E1314160002181600C226C
:104A7000C160C0E904128161C161FFF70BF8002831
:104A800003D0BDE81040FCF764BC10BD00440040FA
:104A9000CC0700200C4810B50A4901604FF4E13101
:104AA0004160002181600C22C160C0E90412816173
:104AB000C161FEF7EFFF002803D0BDE81040FCF70E
:104AC00048BC10BD001401400C080020FEE77047F0
:104AD000F0B500210D4BFF260C46002201280FD017
:104AE00003EBC20580B16F5CC7F1FF076F54521C26
:104AF000D2B2802AF2D3491CC9B20829EDD3F0BD45
:104B000003EBC2056E54F2E76C54F0E7D60B0020BD
:104B100070B5474D4FF48064002221462846FDF7CA
:104B2000FAFD4FF4FA70FDF7F7FC01222146284602
:104B3000FDF7F1FD0021AE2000F07CF800210846D1
:104B400000F078F80021102000F074F800214020D7
:104B500000F070F80021812000F06CF80021CF20D7
:104B600000F068F80021A12000F064F80021C820BE
:104B700000F060F80021A62000F05CF80021A820D9
:104B800000F058F800213F2000F054F80021D32015
:104B900000F050F80021084600F04CF80021D52024
:104BA00000F048F80021802000F044F80021D920CE
:104BB00000F040F80021F12000F03CF80021DA205C
:104BC00000F038F80021122000F034F80021DB203A
:104BD00000F030F80021402000F02CF800212020C7
:104BE00000F028F80021022000F024F800218D2098
:104BF00000F020F80021142000F01CF80021A4206F
:104C000000F018F80021A62000F014F80021AF20D1
:104C100000F010F80021AF2000F00CF80020FFF7A2
:104C200057FFBDE870400021084606F053BA000067
:104C30000004024013B508484FF4007309B1012283
:104C400000E000221946FDF766FD0A2301226946AD
:104C50000248FEF727F91CBD000402409C04002016
:104C60002DE9F04FF0EE401A2DED0C8B81B031EEB6
:104C7000E01A31EEE00A0446C0ED080AC0ED051A5C
:104C800080ED0B1AD0ED182AB1EE400ADFEDFE8A56
:104C9000F5EEC02AF1EE10FA0ED0B5EEC01AF1EE24
:104CA00010FA02DDB0EE412A01E0B0EE402AB4EE87
:104CB000E22AF1EE10FA12DC94ED192AB5EEC02AC0
:104CC000F1EE10FA12D0B5EEC01AF1EE10FA01DDD5
:104CD000B0EE410AB4EEC20AF1EE10FA06D2B0EE1E
:104CE000680A01B0BDEC0C8BBDE8F08FA16E04F139
:104CF0003400B0EE00AA0090032902D004297CD031
:104D000086E294ED000AE44EDFF8808320EE010A8B
:104D1000DFF87C93DF4D84ED0C0A94ED0D2AD4ED81
:104D2000012AB6EE00CAF7EE0CCA02EE812A7742DB
:104D3000B6EE08DA84ED0D2A94ED0A2A31EE421A15
:104D400094ED022A61EE02AAC4ED0EAA9FEDD39B58
:104D500071EEE00A4445B0EEE08A61D118EE100A27
:104D6000A84210DD10EE100AFBF7D8FC53EC192B0B
:104D7000FBF79DFBFBF716FD2AEEAC0A2063C4EDA2
:104D80000D8A84ED0E0AB0EE480A10EE100A48446F
:104D9000B0F56C0F13D2206BFBF7C0FC9FEDC11B6D
:104DA00053EC112BFBF783FBFBF7FCFC2063C4EDFA
:104DB0000D8A94ED0E0A20EE0C0A84ED0E0AB0EE78
:104DC000480A10EE100A3044B0F5000F0BD894EDED
:104DD0000D0A20EE0C0A84ED0D0A94ED0E0A20EE69
:104DE0000A0A84ED0E0AB0EE480AB5EEC00AF1EEEA
:104DF00010FA15DBB0EE480A00E0C8E110EE100A28
:104E0000B8420DDC94ED0C0AF1EE000A20EE0D0A1A
:104E100084ED0C0A94ED0E0A20EE200A84ED0E0AB1
:104E20009A48DFF888A2E8304FF41C0B9FEDA0BB36
:104E3000F1EE04AA84425BD118EE100AA84211DDFB
:104E4000206BFBF76BFC53EC192BFBF730FBFBF7EC
:104E5000A9FC2063C4ED0D8A94ED0E0A20EE2C0A05
:104E600084ED0E0AB0EE480A10EE100A5044584580
:104E700001D2C4ED0D8AB0EE480A10EE100A30449B
:104E8000B0F5500F15D8206BFBF748FC53EC1B2BEB
:104E9000FBF70DFBFBF786FC206394ED0D0A20EE7B
:104EA0000A0A84ED0D0A94ED0E0A20EE0A0A84ED3A
:104EB0000E0AB0EE480AB5EEC00AF1EE10FA17DBA2
:104EC000B0EE480A10EE100AB84211DC94ED0C0A5C
:104ED00020EE0D0A84ED0C0A94ED0D0A20EE0A0A6C
:104EE00084ED0D0A94ED0E0A20EE2A0A84ED0E0AD6
:104EF000714884425DD118EE100AA84211DD206B82
:104F0000FBF70CFC53EC192BFBF7D1FAFBF74AFC2F
:104F10002063C4ED0D8A94ED0E0A20EE2C0A84ED78
:104F20000E0AB0EE480A10EE100A5044584501D25D
:104F3000C4ED0D8AB0EE480A10EE100A3044B0F508
:104F4000500F17D8206BFBF7E9FB53EC1B2BFBF73B
:104F5000AEFAFBF727FC206394ED0D0AF0EE080A89
:104F600020EE200A84ED0D0A94ED0E0A20EE0A0AC6
:104F700084ED0E0AB0EE480AB5EEC00AF1EE10FA62
:104F800017DBB0EE480A10EE100AB84211DC94EDBF
:104F90000C0A20EE0D0A84ED0C0A94ED0D0A20EEA9
:104FA0002A0A84ED0D0A94ED0E0A20EE2A0A84EDF9
:104FB0000E0A4248424D9FED43AB84424CD118EE5D
:104FC000100A424988420BDD206BFBF7A7FB53EC2C
:104FD000192BFBF76CFAFBF7E5FB2063C4ED0D8A98
:104FE000B0EE480A10EE100A2844B0F1A87F01D2B2
:104FF000C4ED0D8AB0EE480AB5EEC00AF1EE10FA23
:105000001BDBB0EE480A10EE100A2D49C943884256
:1050100013DC206BFBF782FB53EC1A2BFBF747FAF0
:10502000FBF7C0FB2063A06BFBF778FB53EC1A2B5C
:10503000FBF73DFAFBF7B6FBA06398ED0B0AB0EE69
:10504000C00A10EE100AB0F1804F05DAC4ED0C8AE8
:10505000C4ED0D8AC4ED0E8A1D48844277D118EE46
:10506000100A1C4988420BDD206BFBF757FB53EC01
:10507000192BFBF71CFAFBF795FB2063C4ED0D8A97
:1050800018EE100A284427E0000000000C10002051
:10509000FFFFDFBE00000C42000060BF9A999999A3
:1050A0009999F53F333333333333F33FFFFF8FBEEB
:1050B000333333333333EB3F68110020C017002004
:1050C000FFFF5FBE9A9999999999B93F0000F04204
:1050D000AC1300200000B442B0F5D80F01D2C4EDEB
:1050E0000D8A18EE100A4844B0F5000F0DD2206B5F
:1050F000FBF714FB9FED571B53EC112BFBF7D7F974
:10510000FBF750FB2063C4ED0D8AB5EEC08AF1EECB
:1051100010FA1CDB18EE100A5049884217DC94ED97
:105120000C0AF7EE080A20EE0C0A84ED0C0A94ED46
:105130000D0A20EE200A84ED0D0AA06BFBF7EEFAB3
:1051400053EC1A2BFBF7B3F9FBF72CFBA06394EDA0
:105150001C0A0098B8EE400A04F00CFF94ED0C0A0B
:10516000D4ED0D0A04F13C0030EE200AD4ED0E0A15
:1051700030EE200A84ED0F0A94ED1B0AB8EEC00A47
:1051800004F0F8FE94ED0F0A84ED100A40E094ED6F
:105190000A0AD4ED001A71EE400A60EEA10AC4EDCD
:1051A0000C0AD4ED010A60EE810A00EE4A1AC4ED41
:1051B0000D0A94ED090AD4ED020A31EE000A20EE40
:1051C000200A84ED0E0A94ED1C0A0098B8EE400AFD
:1051D00004F0D0FE94ED0C0AD4ED0D0A04F15C004D
:1051E00030EE200AD4ED0E0A30EE200A84ED150AC6
:1051F000D4ED160A30EE800A84ED170A94ED1B0AEE
:10520000B8EEC00A04F0B6FE94ED170A84ED160A53
:1052100094ED0A0A84ED090A94ED0B0A84ED0A0A5A
:1052200094ED070A84ED060A94ED080A84ED070A56
:1052300094ED040A84ED030A94ED050A84ED040A52
:10524000A06E032802D094ED170A4AE594ED0F0AE8
:1052500047E500009A9999999999E93F0000204102
:1052600000F1680CDFED031A8CE80E0080EC040AF4
:10527000704700000000000010B504210448FEF74C
:10528000F1FA03494FF47A700968886310BD000091
:105290008C05002010B50B4C012204212046FDF79F
:1052A0003AFA012208212046FDF735FA01221021A1
:1052B0002046FDF730FA20460122BDE810402021AB
:1052C000FDF729BA001C02402DE9F05FDFF80C84DD
:1052D0002DED108BB0EE61BAB0EE41FAF0EE60FA4F
:1052E000F0EE40AAFE4CD8F84400FBF717FA94ED14
:1052F0000C1B53EC112BFBF7D4F841EC100B84ED95
:105300000E0B9FEDF81B53EC112BFBF71BFA16D875
:105310009FEDF60B53EC102B94ED0E0B51EC100B94
:10532000FBF728FA0BD894ED0E0B53EC102B94EDF1
:10533000100B51EC100BFBF7B4F8C4E91001ED4F62
:10534000F97CDFEDED8A9FEDEDAADFF8B4B39FEDB8
:10535000ED9BDFF8B893DFEDEEBA9FEDEEEADFF8F4
:10536000B8A3EE4D9FEDEE8A002958D0ED48EE49E6
:10537000C068884272DDE069FBF7D0F953EC192B65
:10538000FBF795F841EC1C0BE848B0EE480AD0ED6D
:10539000000A0BF17400FFF763FC10EE100AFBF734
:1053A000BDF953EC192BFBF782F853EC1C2BFAF7E1
:1053B000D7FFFBF7F7F96062E061206AFBF7AEF90F
:1053C0009FEDDB1B53EC112BFBF771F841EC190B34
:1053D000D948B0EE480AD0ED000A0BF1E800FFF71B
:1053E0003FFC10EE100AFBF799F99FEDD41B53EC2C
:1053F000112BFBF75CF853EC192BFAF7B1FFFBF715
:10540000D1F900EE100A84ED0A0A84ED080AD4ED01
:10541000090AFDEEE00A10EE900A2880E1E0B7F9F3
:105420000E00B2EE042A00EE100AFAEE041AB0EEF4
:105430006B1AB8EEC00AF0EE4E0A05F061FCD9ED29
:10544000000AC0494E4630EEC00A10EE100A89ED3F
:10545000000A884203DB9FEDBC0A07E061E010EE22
:10546000100ABA49884203DC9FEDB90A86ED000AAA
:10547000B7F90C00B2EE042A00EE100AFAEE041A94
:10548000B0EE6B1AB8EEC00AF0EE4E0A05F038FC2A
:10549000DAED000A30EEC0DA8AED00DAE069FBF7F7
:1054A0003DF953EC192BFBF702F841EC1C0BD8F833
:1054B0004400FBF733F994ED101B53EC112BFAF772
:1054C0004FFFFBF76FF900EE900A8D48B0EE4D0AE2
:1054D0007438FFF7C5FB10EE100AFBF71FF953EC09
:1054E000192BFAF7E4FF53EC1C2BFAF739FFFBF703
:1054F00059F900EE100A84ED090A84ED070ABDEEA1
:10550000C00A10EE100A2880B5F9160000EE100A45
:10551000B8EEC00AC0EE280A96ED000A60EE8A0ACC
:105520005CE0D8F844000646FBF7F8F894ED10DB91
:1055300053EC1D2BFAF714FFFBF734F90EEE900A2B
:10554000C846CAED00EAB5F9160000EE100AF8EEFA
:10555000C00A80EEA80A20EE0A0A89ED000AE06976
:10556000FBF7DCF853EC192BFAF7A1FF41EC1C0B0D
:105570003046FBF7D3F853EC1D2BFAF7F1FEFBF79F
:1055800011F900EE900A5E48B0EE6E0A7438FFF72B
:1055900067FB10EE100AFBF7C1F853EC192BFAF772
:1055A00086FF53EC1C2BFAF7DBFEFBF7FBF800EE53
:1055B000100A84ED090A84ED070ABDEEC00A10EE58
:1055C000100A2880B5F9160000EE100AB8EEC00ADD
:1055D000C0EE280A98ED000A60EE8A0A5846FFF7E6
:1055E0003FFBBDEEC00A00264FF0010810EE100A86
:1055F000A882387E10B184F8078000E0E671787EDA
:1056000048B1207A48B12672607A08B1667204E027
:1056100084F8098001E084F80880387D90B1B0EE0C
:105620006A1A787DB1EE6A0A78B1F0EE400A00BFDE
:1056300071EE200AFDEEE00A10EE900A02B2B87D8B
:1056400030B107E0B0EE481AEBE7F0EE480AEFE7BA
:10565000B0EE480AF87DB946D8B1F0EE6A0A00BF4C
:1056600030EE200A617A3B4FBDEEC00A10EE100A00
:1056700000B289B13849F0EE480AB5EE000AB0EE42
:10568000081A002A71DD00286EDA00BFD1ED000A89
:1056900088E0F0EE480AE3E7A17841B1A670B5F9D9
:1056A000021000EE101AB8EEC00A85ED040A00EEF2
:1056B000102AF8EEC00A00EE100AB8EEC00A06F092
:1056C000D1F926499FED260A2648FEF75BFD398869
:1056D00021F4E071C0313980A5E046E0600B002084
:1056E000C00000209A9999999999B93F9A999999E6
:1056F0009999B9BFE80F002000F8FF450000B443B6
:1057000080100020000000000000E03FAC000020FE
:1057100000002544000025C4A80000202C0A002019
:1057200000000000D01B00200AD7233CB800002056
:105730009A9999999999C93FB40000209A99999991
:105740009999E93F00006343000063430000074369
:1057500000000743A41D002098000020B41B002077
:1057600000205F45C017002014E005D1B6EE000A06
:1057700000288BDB03DC17E00CDA002804DAD1ED1B
:10578000000A60EE810A0DE0D1ED000A0CD0F1EEC6
:10579000041A05E0002807DDD1ED000AF1EE0C1A2D
:1057A00060EEA10A60EE800A3B8823F4E073803348
:1057B0003B80024347D0B1EE000A2AEE800AC0EED9
:1057C000018A00BF10EE900AFAF7A8FF41EC190B0E
:1057D000B9F90C00B2EE042A00EE100AFAEE041A2F
:1057E000B0EE6B1AB8EEC00AF0EE4E0A05F088FA79
:1057F00010EE100AFAF792FF9FEDB71B53EC112B36
:10580000FAF752FE53EC192BFAF74BFEFAF7CAFFE0
:1058100000EE100AB248B0EE6F1AF0EE680AFBF71D
:10582000BFFD84F8028099F81D004D4670B1A07943
:1058300070B1A6719AED000ADFEDAA0A30EE200AD7
:105840008AED000A04E0F0EE488ABBE784F806809F
:10585000A87F30B1207930B12671A089401CA08189
:1058600001E084F80480A089BA78C10722F0E00240
:1058700000D02032B421484300EE100ABA70D4EDB3
:10588000050AB8EE400A9848FFF7EAF9974FB7F9CA
:10589000340000EE900A9648F8EEE00AFFF7E0F9CF
:1058A000BDEEC00A10EE100A3885A87E012801D18D
:1058B00084F801808F4891498F4DC37E01F5E870CF
:1058C00001F5117A01F52E7B01F54B79012B3BD0C7
:1058D0006178C1B335F96C1F00EE101AF8EEC00AFA
:1058E000B0EE480AFFF7BCF9BDEEC00A10EE100A90
:1058F00025F80C0CB5F9180000EE100A5046F8EE29
:10590000C00AB0EE480AFFF7ABF9BDEEC00A10EED0
:10591000100AA881B5F9300000EE100A5846F8EEDA
:10592000C00AB0EE480AFFF79BF9BDEEC00A10EEC0
:10593000100AA884B5F9480000EE100AF8EEC00A73
:10594000B0EE480A3BE000E0667035F96C1F00EEEF
:10595000101AF8EEC00AB1EE4B0AF0EE408AFFF7DB
:105960007FF9BDEEC00A10EE100A25F80C0CB5F94F
:10597000180000EE100A5046F8EEC00AB0EE4B0ACE
:10598000FFF76EF9BDEEC00A10EE100AA881B5F956
:10599000300000EE100A5846F8EEC00AB0EE4B0A8E
:1059A000FFF75EF9BDEEC00A10EE100AA884B5F943
:1059B000480000EE100AF8EEC00AB0EE680A484649
:1059C000FFF74EF9BDEEC00A4A4A10EE100AA8874A
:1059D000107F30B1A07A30B1A672E06A401CE0625C
:1059E00001E084F80A80E06AC8B10321B0FBF1F35A
:1059F00001FB1303012B0BD0B0FBF1F301FB1303ED
:105A0000022B07D0B0FBF1F301FB130028B106E035
:105A1000E67204E084F80B8001E00220E072344D6D
:105A2000907C743D012809D0B7F90C003C4600EE8B
:105A3000100AF8EEC00AB0EE480A34E0E07AB1EE9F
:105A40004F0A48B30128B7F90C003C463DD000EEA0
:105A5000900AF8EEE00A2648E838FFF701F9BDEEB3
:105A6000C00A10EE100A2080B4F9200000EE100ADF
:105A7000F8EEC00AB0EE4F0A2846FFF7F1F8BDEE87
:105A8000C00A10EE100AA082FBF790FBBDEC108B51
:105A9000BDE8F05FFBF7E0BAB7F90C003C4600EE5A
:105AA000900AF8EEE00A1248E838FFF7D9F8BDEEA0
:105AB000C00A10EE100A2080B4F9200000EE100A8F
:105AC000F8EEC00AB0EE480AD6E700EE100AF8EE8B
:105AD000C00AB0EE480ABEE7EC51B81E85EB05409F
